{
	"data": {
		"bytecode": {
			"linkReferences": {},
			"object": "608060405234801561000f575f80fd5b50336040518060400160405280601581526020017f476f7665726e616e6365566f74696e67546f6b656e00000000000000000000008152506040518060400160405280600381526020017f4756540000000000000000000000000000000000000000000000000000000000815250815f908161008b9190610427565b50806001908161009b9190610427565b5050505f73ffffffffffffffffffffffffffffffffffffffff168173ffffffffffffffffffffffffffffffffffffffff160361010e575f6040517f1e4fbdf70000000000000000000000000000000000000000000000000000000081526004016101059190610535565b60405180910390fd5b61011d8161012a60201b60201c565b505f600e8190555061054e565b5f600a5f9054906101000a900473ffffffffffffffffffffffffffffffffffffffff16905081600a5f6101000a81548173ffffffffffffffffffffffffffffffffffffffff021916908373ffffffffffffffffffffffffffffffffffffffff1602179055508173ffffffffffffffffffffffffffffffffffffffff168173ffffffffffffffffffffffffffffffffffffffff167f8be0079c531659141344cd1fd0a4f28419497f9722a3daafe3b4186f6b6457e060405160405180910390a35050565b5f81519050919050565b7f4e487b71000000000000000000000000000000000000000000000000000000005f52604160045260245ffd5b7f4e487b71000000000000000000000000000000000000000000000000000000005f52602260045260245ffd5b5f600282049050600182168061026857607f821691505b60208210810361027b5761027a610224565b5b50919050565b5f819050815f5260205f209050919050565b5f6020601f8301049050919050565b5f82821b905092915050565b5f600883026102dd7fffffffffffffffffffffffffffffffffffffffffffffffffffffffffffffffff826102a2565b6102e786836102a2565b95508019841693508086168417925050509392505050565b5f819050919050565b5f819050919050565b5f61032b610326610321846102ff565b610308565b6102ff565b9050919050565b5f819050919050565b61034483610311565b61035861035082610332565b8484546102ae565b825550505050565b5f90565b61036c610360565b61037781848461033b565b505050565b5b8181101561039a5761038f5f82610364565b60018101905061037d565b5050565b601f8211156103df576103b081610281565b6103b984610293565b810160208510156103c8578190505b6103dc6103d485610293565b83018261037c565b50505b505050565b5f82821c905092915050565b5f6103ff5f19846008026103e4565b1980831691505092915050565b5f61041783836103f0565b9150826002028217905092915050565b610430826101ed565b67ffffffffffffffff811115610449576104486101f7565b5b6104538254610251565b61045e82828561039e565b5f60209050601f83116001811461048f575f841561047d578287015190505b610487858261040c565b8655506104ee565b601f19841661049d86610281565b5f5b828110156104c45784890151825560018201915060208501945060208101905061049f565b868310156104e157848901516104dd601f8916826103f0565b8355505b6001600288020188555050505b505050505050565b5f73ffffffffffffffffffffffffffffffffffffffff82169050919050565b5f61051f826104f6565b9050919050565b61052f81610515565b82525050565b5f6020820190506105485f830184610526565b92915050565b6130518061055b5f395ff3fe608060405234801561000f575f80fd5b506004361061018c575f3560e01c806370a08231116100dc578063a22cb46511610095578063d082e3811161006f578063d082e38114610492578063de15e288146104b0578063e985e9c5146104ce578063f2fde38b146104fe5761018c565b8063a22cb4651461042a578063b88d4fde14610446578063c87b56dd146104625761018c565b806370a0823114610366578063715018a61461039657806372c4a927146103a05780638742fc3b146103d05780638da5cb5b146103ee57806395d89b411461040c5761018c565b806323b872dd116101495780632f745c59116101235780632f745c59146102ba57806342842e0e146102ea5780634f6ccce7146103065780636352211e146103365761018c565b806323b872dd14610264578063281350cf146102805780632afefa701461029c5761018c565b806301ffc9a71461019057806306fdde03146101c0578063081812fc146101de578063095ea7b31461020e5780630cc4f3301461022a57806318160ddd14610246575b5f80fd5b6101aa60048036038101906101a591906122f1565b61051a565b6040516101b79190612336565b60405180910390f35b6101c8610593565b6040516101d591906123bf565b60405180910390f35b6101f860048036038101906101f39190612412565b610622565b604051610205919061247c565b60405180910390f35b610228600480360381019061022391906124bf565b61063d565b005b610244600480360381019061023f919061263d565b610653565b005b61024e610742565b60405161025b91906126d4565b60405180910390f35b61027e600480360381019061027991906126ed565b61074e565b005b61029a60048036038101906102959190612827565b61084d565b005b6102a4610a76565b6040516102b191906126d4565b60405180910390f35b6102d460048036038101906102cf91906124bf565b610a7c565b6040516102e191906126d4565b60405180910390f35b61030460048036038101906102ff91906126ed565b610b20565b005b610320600480360381019061031b9190612412565b610b3f565b60405161032d91906126d4565b60405180910390f35b610350600480360381019061034b9190612412565b610bb1565b60405161035d919061247c565b60405180910390f35b610380600480360381019061037b919061289d565b610bc2565b60405161038d91906126d4565b60405180910390f35b61039e610c78565b005b6103ba60048036038101906103b59190612412565b610c8b565b6040516103c791906126d4565b60405180910390f35b6103d8610ca0565b6040516103e591906123bf565b60405180910390f35b6103f6610d70565b604051610403919061247c565b60405180910390f35b610414610d98565b60405161042191906123bf565b60405180910390f35b610444600480360381019061043f91906128c8565b610e28565b005b610460600480360381019061045b91906129b6565b610e3e565b005b61047c60048036038101906104779190612412565b610e63565b60405161048991906123bf565b60405180910390f35b61049a610ec9565b6040516104a791906126d4565b60405180910390f35b6104b8610ecf565b6040516104c591906126d4565b60405180910390f35b6104e860048036038101906104e39190612a36565b610ed5565b6040516104f59190612336565b60405180910390f35b6105186004803603810190610513919061289d565b610f63565b005b5f7f780e9d63000000000000000000000000000000000000000000000000000000007bffffffffffffffffffffffffffffffffffffffffffffffffffffffff1916827bffffffffffffffffffffffffffffffffffffffffffffffffffffffff1916148061058c575061058b82610fe7565b5b9050919050565b60605f80546105a190612aa1565b80601f01602080910402602001604051908101604052809291908181526020018280546105cd90612aa1565b80156106185780601f106105ef57610100808354040283529160200191610618565b820191905f5260205f20905b8154815290600101906020018083116105fb57829003601f168201915b5050505050905090565b5f61062c826110c8565b506106368261114e565b9050919050565b61064f828261064a611187565b61118e565b5050565b61065b6111a0565b805182511461069f576040517f08c379a000000000000000000000000000000000000000000000000000000000815260040161069690612b41565b60405180910390fd5b5f5b825181101561073c576106ce848483815181106106c1576106c0612b5f565b5b6020026020010151611227565b8181815181106106e1576106e0612b5f565b5b6020026020010151600b5f8584815181106106ff576106fe612b5f565b5b602002602001015181526020019081526020015f2081905550600e5f81548092919061072a90612bb9565b919050555080806001019150506106a1565b50505050565b5f600880549050905090565b5f73ffffffffffffffffffffffffffffffffffffffff168273ffffffffffffffffffffffffffffffffffffffff16036107be575f6040517f64a0ae920000000000000000000000000000000000000000000000000000000081526004016107b5919061247c565b60405180910390fd5b5f6107d183836107cc611187565b61131a565b90508373ffffffffffffffffffffffffffffffffffffffff168173ffffffffffffffffffffffffffffffffffffffff1614610847578382826040517f64283d7b00000000000000000000000000000000000000000000000000000000815260040161083e93929190612c00565b60405180910390fd5b50505050565b8051825114610891576040517f08c379a000000000000000000000000000000000000000000000000000000000815260040161088890612ca5565b60405180910390fd5b5f5b8251811015610a71575f8382815181106108b0576108af612b5f565b5b602002602001015190503373ffffffffffffffffffffffffffffffffffffffff166108da82610bb1565b73ffffffffffffffffffffffffffffffffffffffff1614610930576040517f08c379a000000000000000000000000000000000000000000000000000000000815260040161092790612d33565b60405180910390fd5b5f600b5f8381526020019081526020015f205411610983576040517f08c379a000000000000000000000000000000000000000000000000000000000815260040161097a90612d9b565b60405180910390fd5b82828151811061099657610995612b5f565b5b6020026020010151156109d157600b5f8281526020019081526020015f2054600c5f8282546109c59190612db9565b925050819055506109fb565b600b5f8281526020019081526020015f2054600d5f8282546109f39190612db9565b925050819055505b7f9fea94799b68dbb994c4e44547ea7b5c9e4068fbc385b8b688005a16b60c3cc63382858581518110610a3157610a30612b5f565b5b6020026020010151600b5f8681526020019081526020015f2054604051610a5b9493929190612dec565b60405180910390a1508080600101915050610893565b505050565b600c5481565b5f610a8683610bc2565b8210610acb5782826040517fa57d13dc000000000000000000000000000000000000000000000000000000008152600401610ac2929190612e2f565b60405180910390fd5b60065f8473ffffffffffffffffffffffffffffffffffffffff1673ffffffffffffffffffffffffffffffffffffffff1681526020019081526020015f205f8381526020019081526020015f2054905092915050565b610b3a83838360405180602001604052805f815250610e3e565b505050565b5f610b48610742565b8210610b8d575f826040517fa57d13dc000000000000000000000000000000000000000000000000000000008152600401610b84929190612e2f565b60405180910390fd5b60088281548110610ba157610ba0612b5f565b5b905f5260205f2001549050919050565b5f610bbb826110c8565b9050919050565b5f8073ffffffffffffffffffffffffffffffffffffffff168273ffffffffffffffffffffffffffffffffffffffff1603610c33575f6040517f89c62b64000000000000000000000000000000000000000000000000000000008152600401610c2a919061247c565b60405180910390fd5b60035f8373ffffffffffffffffffffffffffffffffffffffff1673ffffffffffffffffffffffffffffffffffffffff1681526020019081526020015f20549050919050565b610c806111a0565b610c895f611434565b565b600b602052805f5260405f205f915090505481565b6060600d54600c541115610ceb576040518060400160405280600381526020017f466f7200000000000000000000000000000000000000000000000000000000008152509050610d6d565b600c54600d541115610d34576040518060400160405280600781526020017f416761696e7374000000000000000000000000000000000000000000000000008152509050610d6d565b6040518060400160405280600381526020017f546965000000000000000000000000000000000000000000000000000000000081525090505b90565b5f600a5f9054906101000a900473ffffffffffffffffffffffffffffffffffffffff16905090565b606060018054610da790612aa1565b80601f0160208091040260200160405190810160405280929190818152602001828054610dd390612aa1565b8015610e1e5780601f10610df557610100808354040283529160200191610e1e565b820191905f5260205f20905b815481529060010190602001808311610e0157829003601f168201915b5050505050905090565b610e3a610e33611187565b83836114f7565b5050565b610e4984848461074e565b610e5d610e54611187565b85858585611660565b50505050565b6060610e6e826110c8565b505f610e7861180c565b90505f815111610e965760405180602001604052805f815250610ec1565b80610ea084611822565b604051602001610eb1929190612e90565b6040516020818303038152906040525b915050919050565b600e5481565b600d5481565b5f60055f8473ffffffffffffffffffffffffffffffffffffffff1673ffffffffffffffffffffffffffffffffffffffff1681526020019081526020015f205f8373ffffffffffffffffffffffffffffffffffffffff1673ffffffffffffffffffffffffffffffffffffffff1681526020019081526020015f205f9054906101000a900460ff16905092915050565b610f6b6111a0565b5f73ffffffffffffffffffffffffffffffffffffffff168173ffffffffffffffffffffffffffffffffffffffff1603610fdb575f6040517f1e4fbdf7000000000000000000000000000000000000000000000000000000008152600401610fd2919061247c565b60405180910390fd5b610fe481611434565b50565b5f7f80ac58cd000000000000000000000000000000000000000000000000000000007bffffffffffffffffffffffffffffffffffffffffffffffffffffffff1916827bffffffffffffffffffffffffffffffffffffffffffffffffffffffff191614806110b157507f5b5e139f000000000000000000000000000000000000000000000000000000007bffffffffffffffffffffffffffffffffffffffffffffffffffffffff1916827bffffffffffffffffffffffffffffffffffffffffffffffffffffffff1916145b806110c157506110c0826118ec565b5b9050919050565b5f806110d383611955565b90505f73ffffffffffffffffffffffffffffffffffffffff168173ffffffffffffffffffffffffffffffffffffffff160361114557826040517f7e27328900000000000000000000000000000000000000000000000000000000815260040161113c91906126d4565b60405180910390fd5b80915050919050565b5f60045f8381526020019081526020015f205f9054906101000a900473ffffffffffffffffffffffffffffffffffffffff169050919050565b5f33905090565b61119b838383600161198e565b505050565b6111a8611187565b73ffffffffffffffffffffffffffffffffffffffff166111c6610d70565b73ffffffffffffffffffffffffffffffffffffffff1614611225576111e9611187565b6040517f118cdaa700000000000000000000000000000000000000000000000000000000815260040161121c919061247c565b60405180910390fd5b565b5f73ffffffffffffffffffffffffffffffffffffffff168273ffffffffffffffffffffffffffffffffffffffff1603611297575f6040517f64a0ae9200000000000000000000000000000000000000000000000000000000815260040161128e919061247c565b60405180910390fd5b5f6112a383835f61131a565b90505f73ffffffffffffffffffffffffffffffffffffffff168173ffffffffffffffffffffffffffffffffffffffff1614611315575f6040517f73c6ac6e00000000000000000000000000000000000000000000000000000000815260040161130c919061247c565b60405180910390fd5b505050565b5f80611327858585611b4d565b90505f73ffffffffffffffffffffffffffffffffffffffff168173ffffffffffffffffffffffffffffffffffffffff160361136a5761136584611d58565b6113a9565b8473ffffffffffffffffffffffffffffffffffffffff168173ffffffffffffffffffffffffffffffffffffffff16146113a8576113a78185611d9c565b5b5b5f73ffffffffffffffffffffffffffffffffffffffff168573ffffffffffffffffffffffffffffffffffffffff16036113ea576113e584611e73565b611429565b8473ffffffffffffffffffffffffffffffffffffffff168173ffffffffffffffffffffffffffffffffffffffff1614611428576114278585611f33565b5b5b809150509392505050565b5f600a5f9054906101000a900473ffffffffffffffffffffffffffffffffffffffff16905081600a5f6101000a81548173ffffffffffffffffffffffffffffffffffffffff021916908373ffffffffffffffffffffffffffffffffffffffff1602179055508173ffffffffffffffffffffffffffffffffffffffff168173ffffffffffffffffffffffffffffffffffffffff167f8be0079c531659141344cd1fd0a4f28419497f9722a3daafe3b4186f6b6457e060405160405180910390a35050565b5f73ffffffffffffffffffffffffffffffffffffffff168273ffffffffffffffffffffffffffffffffffffffff160361156757816040517f5b08ba1800000000000000000000000000000000000000000000000000000000815260040161155e919061247c565b60405180910390fd5b8060055f8573ffffffffffffffffffffffffffffffffffffffff1673ffffffffffffffffffffffffffffffffffffffff1681526020019081526020015f205f8473ffffffffffffffffffffffffffffffffffffffff1673ffffffffffffffffffffffffffffffffffffffff1681526020019081526020015f205f6101000a81548160ff0219169083151502179055508173ffffffffffffffffffffffffffffffffffffffff168373ffffffffffffffffffffffffffffffffffffffff167f17307eab39ab6107e8899845ad3d59bd9653f200f220920489ca2b5937696c31836040516116539190612336565b60405180910390a3505050565b5f8373ffffffffffffffffffffffffffffffffffffffff163b1115611805578273ffffffffffffffffffffffffffffffffffffffff1663150b7a02868685856040518563ffffffff1660e01b81526004016116be9493929190612f05565b6020604051808303815f875af19250505080156116f957506040513d601f19601f820116820180604052508101906116f69190612f63565b60015b61177a573d805f8114611727576040519150601f19603f3d011682016040523d82523d5f602084013e61172c565b606091505b505f81510361177257836040517f64a0ae92000000000000000000000000000000000000000000000000000000008152600401611769919061247c565b60405180910390fd5b805181602001fd5b63150b7a0260e01b7bffffffffffffffffffffffffffffffffffffffffffffffffffffffff1916817bffffffffffffffffffffffffffffffffffffffffffffffffffffffff19161461180357836040517f64a0ae920000000000000000000000000000000000000000000000000000000081526004016117fa919061247c565b60405180910390fd5b505b5050505050565b606060405180602001604052805f815250905090565b60605f600161183084611fb7565b0190505f8167ffffffffffffffff81111561184e5761184d612501565b5b6040519080825280601f01601f1916602001820160405280156118805781602001600182028036833780820191505090505b5090505f82602001820190505b6001156118e1578080600190039150507f3031323334353637383961626364656600000000000000000000000000000000600a86061a8153600a85816118d6576118d5612f8e565b5b0494505f850361188d575b819350505050919050565b5f7f01ffc9a7000000000000000000000000000000000000000000000000000000007bffffffffffffffffffffffffffffffffffffffffffffffffffffffff1916827bffffffffffffffffffffffffffffffffffffffffffffffffffffffff1916149050919050565b5f60025f8381526020019081526020015f205f9054906101000a900473ffffffffffffffffffffffffffffffffffffffff169050919050565b80806119c657505f73ffffffffffffffffffffffffffffffffffffffff168273ffffffffffffffffffffffffffffffffffffffff1614155b15611af8575f6119d5846110c8565b90505f73ffffffffffffffffffffffffffffffffffffffff168373ffffffffffffffffffffffffffffffffffffffff1614158015611a3f57508273ffffffffffffffffffffffffffffffffffffffff168173ffffffffffffffffffffffffffffffffffffffff1614155b8015611a525750611a508184610ed5565b155b15611a9457826040517fa9fbf51f000000000000000000000000000000000000000000000000000000008152600401611a8b919061247c565b60405180910390fd5b8115611af657838573ffffffffffffffffffffffffffffffffffffffff168273ffffffffffffffffffffffffffffffffffffffff167f8c5be1e5ebec7d5bd14f71427d1e84f3dd0314c0f7b2291e5b200ac8c7c3b92560405160405180910390a45b505b8360045f8581526020019081526020015f205f6101000a81548173ffffffffffffffffffffffffffffffffffffffff021916908373ffffffffffffffffffffffffffffffffffffffff16021790555050505050565b5f80611b5884611955565b90505f73ffffffffffffffffffffffffffffffffffffffff168373ffffffffffffffffffffffffffffffffffffffff1614611b9957611b98818486612108565b5b5f73ffffffffffffffffffffffffffffffffffffffff168173ffffffffffffffffffffffffffffffffffffffff1614611c2457611bd85f855f8061198e565b600160035f8373ffffffffffffffffffffffffffffffffffffffff1673ffffffffffffffffffffffffffffffffffffffff1681526020019081526020015f205f82825403925050819055505b5f73ffffffffffffffffffffffffffffffffffffffff168573ffffffffffffffffffffffffffffffffffffffff1614611ca357600160035f8773ffffffffffffffffffffffffffffffffffffffff1673ffffffffffffffffffffffffffffffffffffffff1681526020019081526020015f205f82825401925050819055505b8460025f8681526020019081526020015f205f6101000a81548173ffffffffffffffffffffffffffffffffffffffff021916908373ffffffffffffffffffffffffffffffffffffffff160217905550838573ffffffffffffffffffffffffffffffffffffffff168273ffffffffffffffffffffffffffffffffffffffff167fddf252ad1be2c89b69c2b068fc378daa952ba7f163c4a11628f55a4df523b3ef60405160405180910390a4809150509392505050565b60088054905060095f8381526020019081526020015f2081905550600881908060018154018082558091505060019003905f5260205f20015f909190919091505550565b5f611da683610bc2565b90505f60075f8481526020019081526020015f205490505f60065f8673ffffffffffffffffffffffffffffffffffffffff1673ffffffffffffffffffffffffffffffffffffffff1681526020019081526020015f209050828214611e45575f815f8581526020019081526020015f2054905080825f8581526020019081526020015f20819055508260075f8381526020019081526020015f2081905550505b60075f8581526020019081526020015f205f9055805f8481526020019081526020015f205f90555050505050565b5f6001600880549050611e869190612fbb565b90505f60095f8481526020019081526020015f205490505f60088381548110611eb257611eb1612b5f565b5b905f5260205f20015490508060088381548110611ed257611ed1612b5f565b5b905f5260205f2001819055508160095f8381526020019081526020015f208190555060095f8581526020019081526020015f205f90556008805480611f1a57611f19612fee565b5b600190038181905f5260205f20015f9055905550505050565b5f6001611f3f84610bc2565b611f499190612fbb565b90508160065f8573ffffffffffffffffffffffffffffffffffffffff1673ffffffffffffffffffffffffffffffffffffffff1681526020019081526020015f205f8381526020019081526020015f20819055508060075f8481526020019081526020015f2081905550505050565b5f805f90507a184f03e93ff9f4daa797ed6e38ed64bf6a1f0100000000000000008310612013577a184f03e93ff9f4daa797ed6e38ed64bf6a1f010000000000000000838161200957612008612f8e565b5b0492506040810190505b6d04ee2d6d415b85acef81000000008310612050576d04ee2d6d415b85acef8100000000838161204657612045612f8e565b5b0492506020810190505b662386f26fc10000831061207f57662386f26fc10000838161207557612074612f8e565b5b0492506010810190505b6305f5e10083106120a8576305f5e100838161209e5761209d612f8e565b5b0492506008810190505b61271083106120cd5761271083816120c3576120c2612f8e565b5b0492506004810190505b606483106120f057606483816120e6576120e5612f8e565b5b0492506002810190505b600a83106120ff576001810190505b80915050919050565b6121138383836121cb565b6121c6575f73ffffffffffffffffffffffffffffffffffffffff168373ffffffffffffffffffffffffffffffffffffffff160361218757806040517f7e27328900000000000000000000000000000000000000000000000000000000815260040161217e91906126d4565b60405180910390fd5b81816040517f177e802f0000000000000000000000000000000000000000000000000000000081526004016121bd929190612e2f565b60405180910390fd5b505050565b5f8073ffffffffffffffffffffffffffffffffffffffff168373ffffffffffffffffffffffffffffffffffffffff161415801561228257508273ffffffffffffffffffffffffffffffffffffffff168473ffffffffffffffffffffffffffffffffffffffff16148061224357506122428484610ed5565b5b8061228157508273ffffffffffffffffffffffffffffffffffffffff166122698361114e565b73ffffffffffffffffffffffffffffffffffffffff16145b5b90509392505050565b5f604051905090565b5f80fd5b5f80fd5b5f7fffffffff0000000000000000000000000000000000000000000000000000000082169050919050565b6122d08161229c565b81146122da575f80fd5b50565b5f813590506122eb816122c7565b92915050565b5f6020828403121561230657612305612294565b5b5f612313848285016122dd565b91505092915050565b5f8115159050919050565b6123308161231c565b82525050565b5f6020820190506123495f830184612327565b92915050565b5f81519050919050565b5f82825260208201905092915050565b8281835e5f83830152505050565b5f601f19601f8301169050919050565b5f6123918261234f565b61239b8185612359565b93506123ab818560208601612369565b6123b481612377565b840191505092915050565b5f6020820190508181035f8301526123d78184612387565b905092915050565b5f819050919050565b6123f1816123df565b81146123fb575f80fd5b50565b5f8135905061240c816123e8565b92915050565b5f6020828403121561242757612426612294565b5b5f612434848285016123fe565b91505092915050565b5f73ffffffffffffffffffffffffffffffffffffffff82169050919050565b5f6124668261243d565b9050919050565b6124768161245c565b82525050565b5f60208201905061248f5f83018461246d565b92915050565b61249e8161245c565b81146124a8575f80fd5b50565b5f813590506124b981612495565b92915050565b5f80604083850312156124d5576124d4612294565b5b5f6124e2858286016124ab565b92505060206124f3858286016123fe565b9150509250929050565b5f80fd5b7f4e487b71000000000000000000000000000000000000000000000000000000005f52604160045260245ffd5b61253782612377565b810181811067ffffffffffffffff8211171561255657612555612501565b5b80604052505050565b5f61256861228b565b9050612574828261252e565b919050565b5f67ffffffffffffffff82111561259357612592612501565b5b602082029050602081019050919050565b5f80fd5b5f6125ba6125b584612579565b61255f565b905080838252602082019050602084028301858111156125dd576125dc6125a4565b5b835b8181101561260657806125f288826123fe565b8452602084019350506020810190506125df565b5050509392505050565b5f82601f830112612624576126236124fd565b5b81356126348482602086016125a8565b91505092915050565b5f805f6060848603121561265457612653612294565b5b5f612661868287016124ab565b935050602084013567ffffffffffffffff81111561268257612681612298565b5b61268e86828701612610565b925050604084013567ffffffffffffffff8111156126af576126ae612298565b5b6126bb86828701612610565b9150509250925092565b6126ce816123df565b82525050565b5f6020820190506126e75f8301846126c5565b92915050565b5f805f6060848603121561270457612703612294565b5b5f612711868287016124ab565b9350506020612722868287016124ab565b9250506040612733868287016123fe565b9150509250925092565b5f67ffffffffffffffff82111561275757612756612501565b5b602082029050602081019050919050565b6127718161231c565b811461277b575f80fd5b50565b5f8135905061278c81612768565b92915050565b5f6127a461279f8461273d565b61255f565b905080838252602082019050602084028301858111156127c7576127c66125a4565b5b835b818110156127f057806127dc888261277e565b8452602084019350506020810190506127c9565b5050509392505050565b5f82601f83011261280e5761280d6124fd565b5b813561281e848260208601612792565b91505092915050565b5f806040838503121561283d5761283c612294565b5b5f83013567ffffffffffffffff81111561285a57612859612298565b5b61286685828601612610565b925050602083013567ffffffffffffffff81111561288757612886612298565b5b612893858286016127fa565b9150509250929050565b5f602082840312156128b2576128b1612294565b5b5f6128bf848285016124ab565b91505092915050565b5f80604083850312156128de576128dd612294565b5b5f6128eb858286016124ab565b92505060206128fc8582860161277e565b9150509250929050565b5f80fd5b5f67ffffffffffffffff82111561292457612923612501565b5b61292d82612377565b9050602081019050919050565b828183375f83830152505050565b5f61295a6129558461290a565b61255f565b90508281526020810184848401111561297657612975612906565b5b61298184828561293a565b509392505050565b5f82601f83011261299d5761299c6124fd565b5b81356129ad848260208601612948565b91505092915050565b5f805f80608085870312156129ce576129cd612294565b5b5f6129db878288016124ab565b94505060206129ec878288016124ab565b93505060406129fd878288016123fe565b925050606085013567ffffffffffffffff811115612a1e57612a1d612298565b5b612a2a87828801612989565b91505092959194509250565b5f8060408385031215612a4c57612a4b612294565b5b5f612a59858286016124ab565b9250506020612a6a858286016124ab565b9150509250929050565b7f4e487b71000000000000000000000000000000000000000000000000000000005f52602260045260245ffd5b5f6002820490506001821680612ab857607f821691505b602082108103612acb57612aca612a74565b5b50919050565b7f546f6b656e2049447320616e6420506f77657273206d757374206d61746368205f8201527f696e206c656e6774680000000000000000000000000000000000000000000000602082015250565b5f612b2b602983612359565b9150612b3682612ad1565b604082019050919050565b5f6020820190508181035f830152612b5881612b1f565b9050919050565b7f4e487b71000000000000000000000000000000000000000000000000000000005f52603260045260245ffd5b7f4e487b71000000000000000000000000000000000000000000000000000000005f52601160045260245ffd5b5f612bc3826123df565b91507fffffffffffffffffffffffffffffffffffffffffffffffffffffffffffffffff8203612bf557612bf4612b8c565b5b600182019050919050565b5f606082019050612c135f83018661246d565b612c2060208301856126c5565b612c2d604083018461246d565b949350505050565b7f546f6b656e2049447320616e6420766f746573206c656e677468206d757374205f8201527f6d61746368000000000000000000000000000000000000000000000000000000602082015250565b5f612c8f602583612359565b9150612c9a82612c35565b604082019050919050565b5f6020820190508181035f830152612cbc81612c83565b9050919050565b7f596f7520617265206e6f7420746865206f776e6572206f66207468697320746f5f8201527f6b656e0000000000000000000000000000000000000000000000000000000000602082015250565b5f612d1d602383612359565b9150612d2882612cc3565b604082019050919050565b5f6020820190508181035f830152612d4a81612d11565b9050919050565b7f546f6b656e20686173206e6f20766f74696e6720706f776572000000000000005f82015250565b5f612d85601983612359565b9150612d9082612d51565b602082019050919050565b5f6020820190508181035f830152612db281612d79565b9050919050565b5f612dc3826123df565b9150612dce836123df565b9250828201905080821115612de657612de5612b8c565b5b92915050565b5f608082019050612dff5f83018761246d565b612e0c60208301866126c5565b612e196040830185612327565b612e2660608301846126c5565b95945050505050565b5f604082019050612e425f83018561246d565b612e4f60208301846126c5565b9392505050565b5f81905092915050565b5f612e6a8261234f565b612e748185612e56565b9350612e84818560208601612369565b80840191505092915050565b5f612e9b8285612e60565b9150612ea78284612e60565b91508190509392505050565b5f81519050919050565b5f82825260208201905092915050565b5f612ed782612eb3565b612ee18185612ebd565b9350612ef1818560208601612369565b612efa81612377565b840191505092915050565b5f608082019050612f185f83018761246d565b612f25602083018661246d565b612f3260408301856126c5565b8181036060830152612f448184612ecd565b905095945050505050565b5f81519050612f5d816122c7565b92915050565b5f60208284031215612f7857612f77612294565b5b5f612f8584828501612f4f565b91505092915050565b7f4e487b71000000000000000000000000000000000000000000000000000000005f52601260045260245ffd5b5f612fc5826123df565b9150612fd0836123df565b9250828203905081811115612fe857612fe7612b8c565b5b92915050565b7f4e487b71000000000000000000000000000000000000000000000000000000005f52603160045260245ffdfea26469706673582212200a333f8a90758ea71cf0570f8e059f39f29f1ca1212cf0d435ec53caaf2ce46064736f6c634300081a0033",
			"opcodes": "PUSH1 0x80 PUSH1 0x40 MSTORE CALLVALUE DUP1 ISZERO PUSH2 0xF JUMPI PUSH0 DUP1 REVERT JUMPDEST POP CALLER PUSH1 0x40 MLOAD DUP1 PUSH1 0x40 ADD PUSH1 0x40 MSTORE DUP1 PUSH1 0x15 DUP2 MSTORE PUSH1 0x20 ADD PUSH32 0x476F7665726E616E6365566F74696E67546F6B656E0000000000000000000000 DUP2 MSTORE POP PUSH1 0x40 MLOAD DUP1 PUSH1 0x40 ADD PUSH1 0x40 MSTORE DUP1 PUSH1 0x3 DUP2 MSTORE PUSH1 0x20 ADD PUSH32 0x4756540000000000000000000000000000000000000000000000000000000000 DUP2 MSTORE POP DUP2 PUSH0 SWAP1 DUP2 PUSH2 0x8B SWAP2 SWAP1 PUSH2 0x427 JUMP JUMPDEST POP DUP1 PUSH1 0x1 SWAP1 DUP2 PUSH2 0x9B SWAP2 SWAP1 PUSH2 0x427 JUMP JUMPDEST POP POP POP PUSH0 PUSH20 0xFFFFFFFFFFFFFFFFFFFFFFFFFFFFFFFFFFFFFFFF AND DUP2 PUSH20 0xFFFFFFFFFFFFFFFFFFFFFFFFFFFFFFFFFFFFFFFF AND SUB PUSH2 0x10E JUMPI PUSH0 PUSH1 0x40 MLOAD PUSH32 0x1E4FBDF700000000000000000000000000000000000000000000000000000000 DUP2 MSTORE PUSH1 0x4 ADD PUSH2 0x105 SWAP2 SWAP1 PUSH2 0x535 JUMP JUMPDEST PUSH1 0x40 MLOAD DUP1 SWAP2 SUB SWAP1 REVERT JUMPDEST PUSH2 0x11D DUP2 PUSH2 0x12A PUSH1 0x20 SHL PUSH1 0x20 SHR JUMP JUMPDEST POP PUSH0 PUSH1 0xE DUP2 SWAP1 SSTORE POP PUSH2 0x54E JUMP JUMPDEST PUSH0 PUSH1 0xA PUSH0 SWAP1 SLOAD SWAP1 PUSH2 0x100 EXP SWAP1 DIV PUSH20 0xFFFFFFFFFFFFFFFFFFFFFFFFFFFFFFFFFFFFFFFF AND SWAP1 POP DUP2 PUSH1 0xA PUSH0 PUSH2 0x100 EXP DUP2 SLOAD DUP2 PUSH20 0xFFFFFFFFFFFFFFFFFFFFFFFFFFFFFFFFFFFFFFFF MUL NOT AND SWAP1 DUP4 PUSH20 0xFFFFFFFFFFFFFFFFFFFFFFFFFFFFFFFFFFFFFFFF AND MUL OR SWAP1 SSTORE POP DUP2 PUSH20 0xFFFFFFFFFFFFFFFFFFFFFFFFFFFFFFFFFFFFFFFF AND DUP2 PUSH20 0xFFFFFFFFFFFFFFFFFFFFFFFFFFFFFFFFFFFFFFFF AND PUSH32 0x8BE0079C531659141344CD1FD0A4F28419497F9722A3DAAFE3B4186F6B6457E0 PUSH1 0x40 MLOAD PUSH1 0x40 MLOAD DUP1 SWAP2 SUB SWAP1 LOG3 POP POP JUMP JUMPDEST PUSH0 DUP2 MLOAD SWAP1 POP SWAP2 SWAP1 POP JUMP JUMPDEST PUSH32 0x4E487B7100000000000000000000000000000000000000000000000000000000 PUSH0 MSTORE PUSH1 0x41 PUSH1 0x4 MSTORE PUSH1 0x24 PUSH0 REVERT JUMPDEST PUSH32 0x4E487B7100000000000000000000000000000000000000000000000000000000 PUSH0 MSTORE PUSH1 0x22 PUSH1 0x4 MSTORE PUSH1 0x24 PUSH0 REVERT JUMPDEST PUSH0 PUSH1 0x2 DUP3 DIV SWAP1 POP PUSH1 0x1 DUP3 AND DUP1 PUSH2 0x268 JUMPI PUSH1 0x7F DUP3 AND SWAP2 POP JUMPDEST PUSH1 0x20 DUP3 LT DUP2 SUB PUSH2 0x27B JUMPI PUSH2 0x27A PUSH2 0x224 JUMP JUMPDEST JUMPDEST POP SWAP2 SWAP1 POP JUMP JUMPDEST PUSH0 DUP2 SWAP1 POP DUP2 PUSH0 MSTORE PUSH1 0x20 PUSH0 KECCAK256 SWAP1 POP SWAP2 SWAP1 POP JUMP JUMPDEST PUSH0 PUSH1 0x20 PUSH1 0x1F DUP4 ADD DIV SWAP1 POP SWAP2 SWAP1 POP JUMP JUMPDEST PUSH0 DUP3 DUP3 SHL SWAP1 POP SWAP3 SWAP2 POP POP JUMP JUMPDEST PUSH0 PUSH1 0x8 DUP4 MUL PUSH2 0x2DD PUSH32 0xFFFFFFFFFFFFFFFFFFFFFFFFFFFFFFFFFFFFFFFFFFFFFFFFFFFFFFFFFFFFFFFF DUP3 PUSH2 0x2A2 JUMP JUMPDEST PUSH2 0x2E7 DUP7 DUP4 PUSH2 0x2A2 JUMP JUMPDEST SWAP6 POP DUP1 NOT DUP5 AND SWAP4 POP DUP1 DUP7 AND DUP5 OR SWAP3 POP POP POP SWAP4 SWAP3 POP POP POP JUMP JUMPDEST PUSH0 DUP2 SWAP1 POP SWAP2 SWAP1 POP JUMP JUMPDEST PUSH0 DUP2 SWAP1 POP SWAP2 SWAP1 POP JUMP JUMPDEST PUSH0 PUSH2 0x32B PUSH2 0x326 PUSH2 0x321 DUP5 PUSH2 0x2FF JUMP JUMPDEST PUSH2 0x308 JUMP JUMPDEST PUSH2 0x2FF JUMP JUMPDEST SWAP1 POP SWAP2 SWAP1 POP JUMP JUMPDEST PUSH0 DUP2 SWAP1 POP SWAP2 SWAP1 POP JUMP JUMPDEST PUSH2 0x344 DUP4 PUSH2 0x311 JUMP JUMPDEST PUSH2 0x358 PUSH2 0x350 DUP3 PUSH2 0x332 JUMP JUMPDEST DUP5 DUP5 SLOAD PUSH2 0x2AE JUMP JUMPDEST DUP3 SSTORE POP POP POP POP JUMP JUMPDEST PUSH0 SWAP1 JUMP JUMPDEST PUSH2 0x36C PUSH2 0x360 JUMP JUMPDEST PUSH2 0x377 DUP2 DUP5 DUP5 PUSH2 0x33B JUMP JUMPDEST POP POP POP JUMP JUMPDEST JUMPDEST DUP2 DUP2 LT ISZERO PUSH2 0x39A JUMPI PUSH2 0x38F PUSH0 DUP3 PUSH2 0x364 JUMP JUMPDEST PUSH1 0x1 DUP2 ADD SWAP1 POP PUSH2 0x37D JUMP JUMPDEST POP POP JUMP JUMPDEST PUSH1 0x1F DUP3 GT ISZERO PUSH2 0x3DF JUMPI PUSH2 0x3B0 DUP2 PUSH2 0x281 JUMP JUMPDEST PUSH2 0x3B9 DUP5 PUSH2 0x293 JUMP JUMPDEST DUP2 ADD PUSH1 0x20 DUP6 LT ISZERO PUSH2 0x3C8 JUMPI DUP2 SWAP1 POP JUMPDEST PUSH2 0x3DC PUSH2 0x3D4 DUP6 PUSH2 0x293 JUMP JUMPDEST DUP4 ADD DUP3 PUSH2 0x37C JUMP JUMPDEST POP POP JUMPDEST POP POP POP JUMP JUMPDEST PUSH0 DUP3 DUP3 SHR SWAP1 POP SWAP3 SWAP2 POP POP JUMP JUMPDEST PUSH0 PUSH2 0x3FF PUSH0 NOT DUP5 PUSH1 0x8 MUL PUSH2 0x3E4 JUMP JUMPDEST NOT DUP1 DUP4 AND SWAP2 POP POP SWAP3 SWAP2 POP POP JUMP JUMPDEST PUSH0 PUSH2 0x417 DUP4 DUP4 PUSH2 0x3F0 JUMP JUMPDEST SWAP2 POP DUP3 PUSH1 0x2 MUL DUP3 OR SWAP1 POP SWAP3 SWAP2 POP POP JUMP JUMPDEST PUSH2 0x430 DUP3 PUSH2 0x1ED JUMP JUMPDEST PUSH8 0xFFFFFFFFFFFFFFFF DUP2 GT ISZERO PUSH2 0x449 JUMPI PUSH2 0x448 PUSH2 0x1F7 JUMP JUMPDEST JUMPDEST PUSH2 0x453 DUP3 SLOAD PUSH2 0x251 JUMP JUMPDEST PUSH2 0x45E DUP3 DUP3 DUP6 PUSH2 0x39E JUMP JUMPDEST PUSH0 PUSH1 0x20 SWAP1 POP PUSH1 0x1F DUP4 GT PUSH1 0x1 DUP2 EQ PUSH2 0x48F JUMPI PUSH0 DUP5 ISZERO PUSH2 0x47D JUMPI DUP3 DUP8 ADD MLOAD SWAP1 POP JUMPDEST PUSH2 0x487 DUP6 DUP3 PUSH2 0x40C JUMP JUMPDEST DUP7 SSTORE POP PUSH2 0x4EE JUMP JUMPDEST PUSH1 0x1F NOT DUP5 AND PUSH2 0x49D DUP7 PUSH2 0x281 JUMP JUMPDEST PUSH0 JUMPDEST DUP3 DUP2 LT ISZERO PUSH2 0x4C4 JUMPI DUP5 DUP10 ADD MLOAD DUP3 SSTORE PUSH1 0x1 DUP3 ADD SWAP2 POP PUSH1 0x20 DUP6 ADD SWAP5 POP PUSH1 0x20 DUP2 ADD SWAP1 POP PUSH2 0x49F JUMP JUMPDEST DUP7 DUP4 LT ISZERO PUSH2 0x4E1 JUMPI DUP5 DUP10 ADD MLOAD PUSH2 0x4DD PUSH1 0x1F DUP10 AND DUP3 PUSH2 0x3F0 JUMP JUMPDEST DUP4 SSTORE POP JUMPDEST PUSH1 0x1 PUSH1 0x2 DUP9 MUL ADD DUP9 SSTORE POP POP POP JUMPDEST POP POP POP POP POP POP JUMP JUMPDEST PUSH0 PUSH20 0xFFFFFFFFFFFFFFFFFFFFFFFFFFFFFFFFFFFFFFFF DUP3 AND SWAP1 POP SWAP2 SWAP1 POP JUMP JUMPDEST PUSH0 PUSH2 0x51F DUP3 PUSH2 0x4F6 JUMP JUMPDEST SWAP1 POP SWAP2 SWAP1 POP JUMP JUMPDEST PUSH2 0x52F DUP2 PUSH2 0x515 JUMP JUMPDEST DUP3 MSTORE POP POP JUMP JUMPDEST PUSH0 PUSH1 0x20 DUP3 ADD SWAP1 POP PUSH2 0x548 PUSH0 DUP4 ADD DUP5 PUSH2 0x526 JUMP JUMPDEST SWAP3 SWAP2 POP POP JUMP JUMPDEST PUSH2 0x3051 DUP1 PUSH2 0x55B PUSH0 CODECOPY PUSH0 RETURN INVALID PUSH1 0x80 PUSH1 0x40 MSTORE CALLVALUE DUP1 ISZERO PUSH2 0xF JUMPI PUSH0 DUP1 REVERT JUMPDEST POP PUSH1 0x4 CALLDATASIZE LT PUSH2 0x18C JUMPI PUSH0 CALLDATALOAD PUSH1 0xE0 SHR DUP1 PUSH4 0x70A08231 GT PUSH2 0xDC JUMPI DUP1 PUSH4 0xA22CB465 GT PUSH2 0x95 JUMPI DUP1 PUSH4 0xD082E381 GT PUSH2 0x6F JUMPI DUP1 PUSH4 0xD082E381 EQ PUSH2 0x492 JUMPI DUP1 PUSH4 0xDE15E288 EQ PUSH2 0x4B0 JUMPI DUP1 PUSH4 0xE985E9C5 EQ PUSH2 0x4CE JUMPI DUP1 PUSH4 0xF2FDE38B EQ PUSH2 0x4FE JUMPI PUSH2 0x18C JUMP JUMPDEST DUP1 PUSH4 0xA22CB465 EQ PUSH2 0x42A JUMPI DUP1 PUSH4 0xB88D4FDE EQ PUSH2 0x446 JUMPI DUP1 PUSH4 0xC87B56DD EQ PUSH2 0x462 JUMPI PUSH2 0x18C JUMP JUMPDEST DUP1 PUSH4 0x70A08231 EQ PUSH2 0x366 JUMPI DUP1 PUSH4 0x715018A6 EQ PUSH2 0x396 JUMPI DUP1 PUSH4 0x72C4A927 EQ PUSH2 0x3A0 JUMPI DUP1 PUSH4 0x8742FC3B EQ PUSH2 0x3D0 JUMPI DUP1 PUSH4 0x8DA5CB5B EQ PUSH2 0x3EE JUMPI DUP1 PUSH4 0x95D89B41 EQ PUSH2 0x40C JUMPI PUSH2 0x18C JUMP JUMPDEST DUP1 PUSH4 0x23B872DD GT PUSH2 0x149 JUMPI DUP1 PUSH4 0x2F745C59 GT PUSH2 0x123 JUMPI DUP1 PUSH4 0x2F745C59 EQ PUSH2 0x2BA JUMPI DUP1 PUSH4 0x42842E0E EQ PUSH2 0x2EA JUMPI DUP1 PUSH4 0x4F6CCCE7 EQ PUSH2 0x306 JUMPI DUP1 PUSH4 0x6352211E EQ PUSH2 0x336 JUMPI PUSH2 0x18C JUMP JUMPDEST DUP1 PUSH4 0x23B872DD EQ PUSH2 0x264 JUMPI DUP1 PUSH4 0x281350CF EQ PUSH2 0x280 JUMPI DUP1 PUSH4 0x2AFEFA70 EQ PUSH2 0x29C JUMPI PUSH2 0x18C JUMP JUMPDEST DUP1 PUSH4 0x1FFC9A7 EQ PUSH2 0x190 JUMPI DUP1 PUSH4 0x6FDDE03 EQ PUSH2 0x1C0 JUMPI DUP1 PUSH4 0x81812FC EQ PUSH2 0x1DE JUMPI DUP1 PUSH4 0x95EA7B3 EQ PUSH2 0x20E JUMPI DUP1 PUSH4 0xCC4F330 EQ PUSH2 0x22A JUMPI DUP1 PUSH4 0x18160DDD EQ PUSH2 0x246 JUMPI JUMPDEST PUSH0 DUP1 REVERT JUMPDEST PUSH2 0x1AA PUSH1 0x4 DUP1 CALLDATASIZE SUB DUP2 ADD SWAP1 PUSH2 0x1A5 SWAP2 SWAP1 PUSH2 0x22F1 JUMP JUMPDEST PUSH2 0x51A JUMP JUMPDEST PUSH1 0x40 MLOAD PUSH2 0x1B7 SWAP2 SWAP1 PUSH2 0x2336 JUMP JUMPDEST PUSH1 0x40 MLOAD DUP1 SWAP2 SUB SWAP1 RETURN JUMPDEST PUSH2 0x1C8 PUSH2 0x593 JUMP JUMPDEST PUSH1 0x40 MLOAD PUSH2 0x1D5 SWAP2 SWAP1 PUSH2 0x23BF JUMP JUMPDEST PUSH1 0x40 MLOAD DUP1 SWAP2 SUB SWAP1 RETURN JUMPDEST PUSH2 0x1F8 PUSH1 0x4 DUP1 CALLDATASIZE SUB DUP2 ADD SWAP1 PUSH2 0x1F3 SWAP2 SWAP1 PUSH2 0x2412 JUMP JUMPDEST PUSH2 0x622 JUMP JUMPDEST PUSH1 0x40 MLOAD PUSH2 0x205 SWAP2 SWAP1 PUSH2 0x247C JUMP JUMPDEST PUSH1 0x40 MLOAD DUP1 SWAP2 SUB SWAP1 RETURN JUMPDEST PUSH2 0x228 PUSH1 0x4 DUP1 CALLDATASIZE SUB DUP2 ADD SWAP1 PUSH2 0x223 SWAP2 SWAP1 PUSH2 0x24BF JUMP JUMPDEST PUSH2 0x63D JUMP JUMPDEST STOP JUMPDEST PUSH2 0x244 PUSH1 0x4 DUP1 CALLDATASIZE SUB DUP2 ADD SWAP1 PUSH2 0x23F SWAP2 SWAP1 PUSH2 0x263D JUMP JUMPDEST PUSH2 0x653 JUMP JUMPDEST STOP JUMPDEST PUSH2 0x24E PUSH2 0x742 JUMP JUMPDEST PUSH1 0x40 MLOAD PUSH2 0x25B SWAP2 SWAP1 PUSH2 0x26D4 JUMP JUMPDEST PUSH1 0x40 MLOAD DUP1 SWAP2 SUB SWAP1 RETURN JUMPDEST PUSH2 0x27E PUSH1 0x4 DUP1 CALLDATASIZE SUB DUP2 ADD SWAP1 PUSH2 0x279 SWAP2 SWAP1 PUSH2 0x26ED JUMP JUMPDEST PUSH2 0x74E JUMP JUMPDEST STOP JUMPDEST PUSH2 0x29A PUSH1 0x4 DUP1 CALLDATASIZE SUB DUP2 ADD SWAP1 PUSH2 0x295 SWAP2 SWAP1 PUSH2 0x2827 JUMP JUMPDEST PUSH2 0x84D JUMP JUMPDEST STOP JUMPDEST PUSH2 0x2A4 PUSH2 0xA76 JUMP JUMPDEST PUSH1 0x40 MLOAD PUSH2 0x2B1 SWAP2 SWAP1 PUSH2 0x26D4 JUMP JUMPDEST PUSH1 0x40 MLOAD DUP1 SWAP2 SUB SWAP1 RETURN JUMPDEST PUSH2 0x2D4 PUSH1 0x4 DUP1 CALLDATASIZE SUB DUP2 ADD SWAP1 PUSH2 0x2CF SWAP2 SWAP1 PUSH2 0x24BF JUMP JUMPDEST PUSH2 0xA7C JUMP JUMPDEST PUSH1 0x40 MLOAD PUSH2 0x2E1 SWAP2 SWAP1 PUSH2 0x26D4 JUMP JUMPDEST PUSH1 0x40 MLOAD DUP1 SWAP2 SUB SWAP1 RETURN JUMPDEST PUSH2 0x304 PUSH1 0x4 DUP1 CALLDATASIZE SUB DUP2 ADD SWAP1 PUSH2 0x2FF SWAP2 SWAP1 PUSH2 0x26ED JUMP JUMPDEST PUSH2 0xB20 JUMP JUMPDEST STOP JUMPDEST PUSH2 0x320 PUSH1 0x4 DUP1 CALLDATASIZE SUB DUP2 ADD SWAP1 PUSH2 0x31B SWAP2 SWAP1 PUSH2 0x2412 JUMP JUMPDEST PUSH2 0xB3F JUMP JUMPDEST PUSH1 0x40 MLOAD PUSH2 0x32D SWAP2 SWAP1 PUSH2 0x26D4 JUMP JUMPDEST PUSH1 0x40 MLOAD DUP1 SWAP2 SUB SWAP1 RETURN JUMPDEST PUSH2 0x350 PUSH1 0x4 DUP1 CALLDATASIZE SUB DUP2 ADD SWAP1 PUSH2 0x34B SWAP2 SWAP1 PUSH2 0x2412 JUMP JUMPDEST PUSH2 0xBB1 JUMP JUMPDEST PUSH1 0x40 MLOAD PUSH2 0x35D SWAP2 SWAP1 PUSH2 0x247C JUMP JUMPDEST PUSH1 0x40 MLOAD DUP1 SWAP2 SUB SWAP1 RETURN JUMPDEST PUSH2 0x380 PUSH1 0x4 DUP1 CALLDATASIZE SUB DUP2 ADD SWAP1 PUSH2 0x37B SWAP2 SWAP1 PUSH2 0x289D JUMP JUMPDEST PUSH2 0xBC2 JUMP JUMPDEST PUSH1 0x40 MLOAD PUSH2 0x38D SWAP2 SWAP1 PUSH2 0x26D4 JUMP JUMPDEST PUSH1 0x40 MLOAD DUP1 SWAP2 SUB SWAP1 RETURN JUMPDEST PUSH2 0x39E PUSH2 0xC78 JUMP JUMPDEST STOP JUMPDEST PUSH2 0x3BA PUSH1 0x4 DUP1 CALLDATASIZE SUB DUP2 ADD SWAP1 PUSH2 0x3B5 SWAP2 SWAP1 PUSH2 0x2412 JUMP JUMPDEST PUSH2 0xC8B JUMP JUMPDEST PUSH1 0x40 MLOAD PUSH2 0x3C7 SWAP2 SWAP1 PUSH2 0x26D4 JUMP JUMPDEST PUSH1 0x40 MLOAD DUP1 SWAP2 SUB SWAP1 RETURN JUMPDEST PUSH2 0x3D8 PUSH2 0xCA0 JUMP JUMPDEST PUSH1 0x40 MLOAD PUSH2 0x3E5 SWAP2 SWAP1 PUSH2 0x23BF JUMP JUMPDEST PUSH1 0x40 MLOAD DUP1 SWAP2 SUB SWAP1 RETURN JUMPDEST PUSH2 0x3F6 PUSH2 0xD70 JUMP JUMPDEST PUSH1 0x40 MLOAD PUSH2 0x403 SWAP2 SWAP1 PUSH2 0x247C JUMP JUMPDEST PUSH1 0x40 MLOAD DUP1 SWAP2 SUB SWAP1 RETURN JUMPDEST PUSH2 0x414 PUSH2 0xD98 JUMP JUMPDEST PUSH1 0x40 MLOAD PUSH2 0x421 SWAP2 SWAP1 PUSH2 0x23BF JUMP JUMPDEST PUSH1 0x40 MLOAD DUP1 SWAP2 SUB SWAP1 RETURN JUMPDEST PUSH2 0x444 PUSH1 0x4 DUP1 CALLDATASIZE SUB DUP2 ADD SWAP1 PUSH2 0x43F SWAP2 SWAP1 PUSH2 0x28C8 JUMP JUMPDEST PUSH2 0xE28 JUMP JUMPDEST STOP JUMPDEST PUSH2 0x460 PUSH1 0x4 DUP1 CALLDATASIZE SUB DUP2 ADD SWAP1 PUSH2 0x45B SWAP2 SWAP1 PUSH2 0x29B6 JUMP JUMPDEST PUSH2 0xE3E JUMP JUMPDEST STOP JUMPDEST PUSH2 0x47C PUSH1 0x4 DUP1 CALLDATASIZE SUB DUP2 ADD SWAP1 PUSH2 0x477 SWAP2 SWAP1 PUSH2 0x2412 JUMP JUMPDEST PUSH2 0xE63 JUMP JUMPDEST PUSH1 0x40 MLOAD PUSH2 0x489 SWAP2 SWAP1 PUSH2 0x23BF JUMP JUMPDEST PUSH1 0x40 MLOAD DUP1 SWAP2 SUB SWAP1 RETURN JUMPDEST PUSH2 0x49A PUSH2 0xEC9 JUMP JUMPDEST PUSH1 0x40 MLOAD PUSH2 0x4A7 SWAP2 SWAP1 PUSH2 0x26D4 JUMP JUMPDEST PUSH1 0x40 MLOAD DUP1 SWAP2 SUB SWAP1 RETURN JUMPDEST PUSH2 0x4B8 PUSH2 0xECF JUMP JUMPDEST PUSH1 0x40 MLOAD PUSH2 0x4C5 SWAP2 SWAP1 PUSH2 0x26D4 JUMP JUMPDEST PUSH1 0x40 MLOAD DUP1 SWAP2 SUB SWAP1 RETURN JUMPDEST PUSH2 0x4E8 PUSH1 0x4 DUP1 CALLDATASIZE SUB DUP2 ADD SWAP1 PUSH2 0x4E3 SWAP2 SWAP1 PUSH2 0x2A36 JUMP JUMPDEST PUSH2 0xED5 JUMP JUMPDEST PUSH1 0x40 MLOAD PUSH2 0x4F5 SWAP2 SWAP1 PUSH2 0x2336 JUMP JUMPDEST PUSH1 0x40 MLOAD DUP1 SWAP2 SUB SWAP1 RETURN JUMPDEST PUSH2 0x518 PUSH1 0x4 DUP1 CALLDATASIZE SUB DUP2 ADD SWAP1 PUSH2 0x513 SWAP2 SWAP1 PUSH2 0x289D JUMP JUMPDEST PUSH2 0xF63 JUMP JUMPDEST STOP JUMPDEST PUSH0 PUSH32 0x780E9D6300000000000000000000000000000000000000000000000000000000 PUSH28 0xFFFFFFFFFFFFFFFFFFFFFFFFFFFFFFFFFFFFFFFFFFFFFFFFFFFFFFFF NOT AND DUP3 PUSH28 0xFFFFFFFFFFFFFFFFFFFFFFFFFFFFFFFFFFFFFFFFFFFFFFFFFFFFFFFF NOT AND EQ DUP1 PUSH2 0x58C JUMPI POP PUSH2 0x58B DUP3 PUSH2 0xFE7 JUMP JUMPDEST JUMPDEST SWAP1 POP SWAP2 SWAP1 POP JUMP JUMPDEST PUSH1 0x60 PUSH0 DUP1 SLOAD PUSH2 0x5A1 SWAP1 PUSH2 0x2AA1 JUMP JUMPDEST DUP1 PUSH1 0x1F ADD PUSH1 0x20 DUP1 SWAP2 DIV MUL PUSH1 0x20 ADD PUSH1 0x40 MLOAD SWAP1 DUP2 ADD PUSH1 0x40 MSTORE DUP1 SWAP3 SWAP2 SWAP1 DUP2 DUP2 MSTORE PUSH1 0x20 ADD DUP3 DUP1 SLOAD PUSH2 0x5CD SWAP1 PUSH2 0x2AA1 JUMP JUMPDEST DUP1 ISZERO PUSH2 0x618 JUMPI DUP1 PUSH1 0x1F LT PUSH2 0x5EF JUMPI PUSH2 0x100 DUP1 DUP4 SLOAD DIV MUL DUP4 MSTORE SWAP2 PUSH1 0x20 ADD SWAP2 PUSH2 0x618 JUMP JUMPDEST DUP3 ADD SWAP2 SWAP1 PUSH0 MSTORE PUSH1 0x20 PUSH0 KECCAK256 SWAP1 JUMPDEST DUP2 SLOAD DUP2 MSTORE SWAP1 PUSH1 0x1 ADD SWAP1 PUSH1 0x20 ADD DUP1 DUP4 GT PUSH2 0x5FB JUMPI DUP3 SWAP1 SUB PUSH1 0x1F AND DUP3 ADD SWAP2 JUMPDEST POP POP POP POP POP SWAP1 POP SWAP1 JUMP JUMPDEST PUSH0 PUSH2 0x62C DUP3 PUSH2 0x10C8 JUMP JUMPDEST POP PUSH2 0x636 DUP3 PUSH2 0x114E JUMP JUMPDEST SWAP1 POP SWAP2 SWAP1 POP JUMP JUMPDEST PUSH2 0x64F DUP3 DUP3 PUSH2 0x64A PUSH2 0x1187 JUMP JUMPDEST PUSH2 0x118E JUMP JUMPDEST POP POP JUMP JUMPDEST PUSH2 0x65B PUSH2 0x11A0 JUMP JUMPDEST DUP1 MLOAD DUP3 MLOAD EQ PUSH2 0x69F JUMPI PUSH1 0x40 MLOAD PUSH32 0x8C379A000000000000000000000000000000000000000000000000000000000 DUP2 MSTORE PUSH1 0x4 ADD PUSH2 0x696 SWAP1 PUSH2 0x2B41 JUMP JUMPDEST PUSH1 0x40 MLOAD DUP1 SWAP2 SUB SWAP1 REVERT JUMPDEST PUSH0 JUMPDEST DUP3 MLOAD DUP2 LT ISZERO PUSH2 0x73C JUMPI PUSH2 0x6CE DUP5 DUP5 DUP4 DUP2 MLOAD DUP2 LT PUSH2 0x6C1 JUMPI PUSH2 0x6C0 PUSH2 0x2B5F JUMP JUMPDEST JUMPDEST PUSH1 0x20 MUL PUSH1 0x20 ADD ADD MLOAD PUSH2 0x1227 JUMP JUMPDEST DUP2 DUP2 DUP2 MLOAD DUP2 LT PUSH2 0x6E1 JUMPI PUSH2 0x6E0 PUSH2 0x2B5F JUMP JUMPDEST JUMPDEST PUSH1 0x20 MUL PUSH1 0x20 ADD ADD MLOAD PUSH1 0xB PUSH0 DUP6 DUP5 DUP2 MLOAD DUP2 LT PUSH2 0x6FF JUMPI PUSH2 0x6FE PUSH2 0x2B5F JUMP JUMPDEST JUMPDEST PUSH1 0x20 MUL PUSH1 0x20 ADD ADD MLOAD DUP2 MSTORE PUSH1 0x20 ADD SWAP1 DUP2 MSTORE PUSH1 0x20 ADD PUSH0 KECCAK256 DUP2 SWAP1 SSTORE POP PUSH1 0xE PUSH0 DUP2 SLOAD DUP1 SWAP3 SWAP2 SWAP1 PUSH2 0x72A SWAP1 PUSH2 0x2BB9 JUMP JUMPDEST SWAP2 SWAP1 POP SSTORE POP DUP1 DUP1 PUSH1 0x1 ADD SWAP2 POP POP PUSH2 0x6A1 JUMP JUMPDEST POP POP POP POP JUMP JUMPDEST PUSH0 PUSH1 0x8 DUP1 SLOAD SWAP1 POP SWAP1 POP SWAP1 JUMP JUMPDEST PUSH0 PUSH20 0xFFFFFFFFFFFFFFFFFFFFFFFFFFFFFFFFFFFFFFFF AND DUP3 PUSH20 0xFFFFFFFFFFFFFFFFFFFFFFFFFFFFFFFFFFFFFFFF AND SUB PUSH2 0x7BE JUMPI PUSH0 PUSH1 0x40 MLOAD PUSH32 0x64A0AE9200000000000000000000000000000000000000000000000000000000 DUP2 MSTORE PUSH1 0x4 ADD PUSH2 0x7B5 SWAP2 SWAP1 PUSH2 0x247C JUMP JUMPDEST PUSH1 0x40 MLOAD DUP1 SWAP2 SUB SWAP1 REVERT JUMPDEST PUSH0 PUSH2 0x7D1 DUP4 DUP4 PUSH2 0x7CC PUSH2 0x1187 JUMP JUMPDEST PUSH2 0x131A JUMP JUMPDEST SWAP1 POP DUP4 PUSH20 0xFFFFFFFFFFFFFFFFFFFFFFFFFFFFFFFFFFFFFFFF AND DUP2 PUSH20 0xFFFFFFFFFFFFFFFFFFFFFFFFFFFFFFFFFFFFFFFF AND EQ PUSH2 0x847 JUMPI DUP4 DUP3 DUP3 PUSH1 0x40 MLOAD PUSH32 0x64283D7B00000000000000000000000000000000000000000000000000000000 DUP2 MSTORE PUSH1 0x4 ADD PUSH2 0x83E SWAP4 SWAP3 SWAP2 SWAP1 PUSH2 0x2C00 JUMP JUMPDEST PUSH1 0x40 MLOAD DUP1 SWAP2 SUB SWAP1 REVERT JUMPDEST POP POP POP POP JUMP JUMPDEST DUP1 MLOAD DUP3 MLOAD EQ PUSH2 0x891 JUMPI PUSH1 0x40 MLOAD PUSH32 0x8C379A000000000000000000000000000000000000000000000000000000000 DUP2 MSTORE PUSH1 0x4 ADD PUSH2 0x888 SWAP1 PUSH2 0x2CA5 JUMP JUMPDEST PUSH1 0x40 MLOAD DUP1 SWAP2 SUB SWAP1 REVERT JUMPDEST PUSH0 JUMPDEST DUP3 MLOAD DUP2 LT ISZERO PUSH2 0xA71 JUMPI PUSH0 DUP4 DUP3 DUP2 MLOAD DUP2 LT PUSH2 0x8B0 JUMPI PUSH2 0x8AF PUSH2 0x2B5F JUMP JUMPDEST JUMPDEST PUSH1 0x20 MUL PUSH1 0x20 ADD ADD MLOAD SWAP1 POP CALLER PUSH20 0xFFFFFFFFFFFFFFFFFFFFFFFFFFFFFFFFFFFFFFFF AND PUSH2 0x8DA DUP3 PUSH2 0xBB1 JUMP JUMPDEST PUSH20 0xFFFFFFFFFFFFFFFFFFFFFFFFFFFFFFFFFFFFFFFF AND EQ PUSH2 0x930 JUMPI PUSH1 0x40 MLOAD PUSH32 0x8C379A000000000000000000000000000000000000000000000000000000000 DUP2 MSTORE PUSH1 0x4 ADD PUSH2 0x927 SWAP1 PUSH2 0x2D33 JUMP JUMPDEST PUSH1 0x40 MLOAD DUP1 SWAP2 SUB SWAP1 REVERT JUMPDEST PUSH0 PUSH1 0xB PUSH0 DUP4 DUP2 MSTORE PUSH1 0x20 ADD SWAP1 DUP2 MSTORE PUSH1 0x20 ADD PUSH0 KECCAK256 SLOAD GT PUSH2 0x983 JUMPI PUSH1 0x40 MLOAD PUSH32 0x8C379A000000000000000000000000000000000000000000000000000000000 DUP2 MSTORE PUSH1 0x4 ADD PUSH2 0x97A SWAP1 PUSH2 0x2D9B JUMP JUMPDEST PUSH1 0x40 MLOAD DUP1 SWAP2 SUB SWAP1 REVERT JUMPDEST DUP3 DUP3 DUP2 MLOAD DUP2 LT PUSH2 0x996 JUMPI PUSH2 0x995 PUSH2 0x2B5F JUMP JUMPDEST JUMPDEST PUSH1 0x20 MUL PUSH1 0x20 ADD ADD MLOAD ISZERO PUSH2 0x9D1 JUMPI PUSH1 0xB PUSH0 DUP3 DUP2 MSTORE PUSH1 0x20 ADD SWAP1 DUP2 MSTORE PUSH1 0x20 ADD PUSH0 KECCAK256 SLOAD PUSH1 0xC PUSH0 DUP3 DUP3 SLOAD PUSH2 0x9C5 SWAP2 SWAP1 PUSH2 0x2DB9 JUMP JUMPDEST SWAP3 POP POP DUP2 SWAP1 SSTORE POP PUSH2 0x9FB JUMP JUMPDEST PUSH1 0xB PUSH0 DUP3 DUP2 MSTORE PUSH1 0x20 ADD SWAP1 DUP2 MSTORE PUSH1 0x20 ADD PUSH0 KECCAK256 SLOAD PUSH1 0xD PUSH0 DUP3 DUP3 SLOAD PUSH2 0x9F3 SWAP2 SWAP1 PUSH2 0x2DB9 JUMP JUMPDEST SWAP3 POP POP DUP2 SWAP1 SSTORE POP JUMPDEST PUSH32 0x9FEA94799B68DBB994C4E44547EA7B5C9E4068FBC385B8B688005A16B60C3CC6 CALLER DUP3 DUP6 DUP6 DUP2 MLOAD DUP2 LT PUSH2 0xA31 JUMPI PUSH2 0xA30 PUSH2 0x2B5F JUMP JUMPDEST JUMPDEST PUSH1 0x20 MUL PUSH1 0x20 ADD ADD MLOAD PUSH1 0xB PUSH0 DUP7 DUP2 MSTORE PUSH1 0x20 ADD SWAP1 DUP2 MSTORE PUSH1 0x20 ADD PUSH0 KECCAK256 SLOAD PUSH1 0x40 MLOAD PUSH2 0xA5B SWAP5 SWAP4 SWAP3 SWAP2 SWAP1 PUSH2 0x2DEC JUMP JUMPDEST PUSH1 0x40 MLOAD DUP1 SWAP2 SUB SWAP1 LOG1 POP DUP1 DUP1 PUSH1 0x1 ADD SWAP2 POP POP PUSH2 0x893 JUMP JUMPDEST POP POP POP JUMP JUMPDEST PUSH1 0xC SLOAD DUP2 JUMP JUMPDEST PUSH0 PUSH2 0xA86 DUP4 PUSH2 0xBC2 JUMP JUMPDEST DUP3 LT PUSH2 0xACB JUMPI DUP3 DUP3 PUSH1 0x40 MLOAD PUSH32 0xA57D13DC00000000000000000000000000000000000000000000000000000000 DUP2 MSTORE PUSH1 0x4 ADD PUSH2 0xAC2 SWAP3 SWAP2 SWAP1 PUSH2 0x2E2F JUMP JUMPDEST PUSH1 0x40 MLOAD DUP1 SWAP2 SUB SWAP1 REVERT JUMPDEST PUSH1 0x6 PUSH0 DUP5 PUSH20 0xFFFFFFFFFFFFFFFFFFFFFFFFFFFFFFFFFFFFFFFF AND PUSH20 0xFFFFFFFFFFFFFFFFFFFFFFFFFFFFFFFFFFFFFFFF AND DUP2 MSTORE PUSH1 0x20 ADD SWAP1 DUP2 MSTORE PUSH1 0x20 ADD PUSH0 KECCAK256 PUSH0 DUP4 DUP2 MSTORE PUSH1 0x20 ADD SWAP1 DUP2 MSTORE PUSH1 0x20 ADD PUSH0 KECCAK256 SLOAD SWAP1 POP SWAP3 SWAP2 POP POP JUMP JUMPDEST PUSH2 0xB3A DUP4 DUP4 DUP4 PUSH1 0x40 MLOAD DUP1 PUSH1 0x20 ADD PUSH1 0x40 MSTORE DUP1 PUSH0 DUP2 MSTORE POP PUSH2 0xE3E JUMP JUMPDEST POP POP POP JUMP JUMPDEST PUSH0 PUSH2 0xB48 PUSH2 0x742 JUMP JUMPDEST DUP3 LT PUSH2 0xB8D JUMPI PUSH0 DUP3 PUSH1 0x40 MLOAD PUSH32 0xA57D13DC00000000000000000000000000000000000000000000000000000000 DUP2 MSTORE PUSH1 0x4 ADD PUSH2 0xB84 SWAP3 SWAP2 SWAP1 PUSH2 0x2E2F JUMP JUMPDEST PUSH1 0x40 MLOAD DUP1 SWAP2 SUB SWAP1 REVERT JUMPDEST PUSH1 0x8 DUP3 DUP2 SLOAD DUP2 LT PUSH2 0xBA1 JUMPI PUSH2 0xBA0 PUSH2 0x2B5F JUMP JUMPDEST JUMPDEST SWAP1 PUSH0 MSTORE PUSH1 0x20 PUSH0 KECCAK256 ADD SLOAD SWAP1 POP SWAP2 SWAP1 POP JUMP JUMPDEST PUSH0 PUSH2 0xBBB DUP3 PUSH2 0x10C8 JUMP JUMPDEST SWAP1 POP SWAP2 SWAP1 POP JUMP JUMPDEST PUSH0 DUP1 PUSH20 0xFFFFFFFFFFFFFFFFFFFFFFFFFFFFFFFFFFFFFFFF AND DUP3 PUSH20 0xFFFFFFFFFFFFFFFFFFFFFFFFFFFFFFFFFFFFFFFF AND SUB PUSH2 0xC33 JUMPI PUSH0 PUSH1 0x40 MLOAD PUSH32 0x89C62B6400000000000000000000000000000000000000000000000000000000 DUP2 MSTORE PUSH1 0x4 ADD PUSH2 0xC2A SWAP2 SWAP1 PUSH2 0x247C JUMP JUMPDEST PUSH1 0x40 MLOAD DUP1 SWAP2 SUB SWAP1 REVERT JUMPDEST PUSH1 0x3 PUSH0 DUP4 PUSH20 0xFFFFFFFFFFFFFFFFFFFFFFFFFFFFFFFFFFFFFFFF AND PUSH20 0xFFFFFFFFFFFFFFFFFFFFFFFFFFFFFFFFFFFFFFFF AND DUP2 MSTORE PUSH1 0x20 ADD SWAP1 DUP2 MSTORE PUSH1 0x20 ADD PUSH0 KECCAK256 SLOAD SWAP1 POP SWAP2 SWAP1 POP JUMP JUMPDEST PUSH2 0xC80 PUSH2 0x11A0 JUMP JUMPDEST PUSH2 0xC89 PUSH0 PUSH2 0x1434 JUMP JUMPDEST JUMP JUMPDEST PUSH1 0xB PUSH1 0x20 MSTORE DUP1 PUSH0 MSTORE PUSH1 0x40 PUSH0 KECCAK256 PUSH0 SWAP2 POP SWAP1 POP SLOAD DUP2 JUMP JUMPDEST PUSH1 0x60 PUSH1 0xD SLOAD PUSH1 0xC SLOAD GT ISZERO PUSH2 0xCEB JUMPI PUSH1 0x40 MLOAD DUP1 PUSH1 0x40 ADD PUSH1 0x40 MSTORE DUP1 PUSH1 0x3 DUP2 MSTORE PUSH1 0x20 ADD PUSH32 0x466F720000000000000000000000000000000000000000000000000000000000 DUP2 MSTORE POP SWAP1 POP PUSH2 0xD6D JUMP JUMPDEST PUSH1 0xC SLOAD PUSH1 0xD SLOAD GT ISZERO PUSH2 0xD34 JUMPI PUSH1 0x40 MLOAD DUP1 PUSH1 0x40 ADD PUSH1 0x40 MSTORE DUP1 PUSH1 0x7 DUP2 MSTORE PUSH1 0x20 ADD PUSH32 0x416761696E737400000000000000000000000000000000000000000000000000 DUP2 MSTORE POP SWAP1 POP PUSH2 0xD6D JUMP JUMPDEST PUSH1 0x40 MLOAD DUP1 PUSH1 0x40 ADD PUSH1 0x40 MSTORE DUP1 PUSH1 0x3 DUP2 MSTORE PUSH1 0x20 ADD PUSH32 0x5469650000000000000000000000000000000000000000000000000000000000 DUP2 MSTORE POP SWAP1 POP JUMPDEST SWAP1 JUMP JUMPDEST PUSH0 PUSH1 0xA PUSH0 SWAP1 SLOAD SWAP1 PUSH2 0x100 EXP SWAP1 DIV PUSH20 0xFFFFFFFFFFFFFFFFFFFFFFFFFFFFFFFFFFFFFFFF AND SWAP1 POP SWAP1 JUMP JUMPDEST PUSH1 0x60 PUSH1 0x1 DUP1 SLOAD PUSH2 0xDA7 SWAP1 PUSH2 0x2AA1 JUMP JUMPDEST DUP1 PUSH1 0x1F ADD PUSH1 0x20 DUP1 SWAP2 DIV MUL PUSH1 0x20 ADD PUSH1 0x40 MLOAD SWAP1 DUP2 ADD PUSH1 0x40 MSTORE DUP1 SWAP3 SWAP2 SWAP1 DUP2 DUP2 MSTORE PUSH1 0x20 ADD DUP3 DUP1 SLOAD PUSH2 0xDD3 SWAP1 PUSH2 0x2AA1 JUMP JUMPDEST DUP1 ISZERO PUSH2 0xE1E JUMPI DUP1 PUSH1 0x1F LT PUSH2 0xDF5 JUMPI PUSH2 0x100 DUP1 DUP4 SLOAD DIV MUL DUP4 MSTORE SWAP2 PUSH1 0x20 ADD SWAP2 PUSH2 0xE1E JUMP JUMPDEST DUP3 ADD SWAP2 SWAP1 PUSH0 MSTORE PUSH1 0x20 PUSH0 KECCAK256 SWAP1 JUMPDEST DUP2 SLOAD DUP2 MSTORE SWAP1 PUSH1 0x1 ADD SWAP1 PUSH1 0x20 ADD DUP1 DUP4 GT PUSH2 0xE01 JUMPI DUP3 SWAP1 SUB PUSH1 0x1F AND DUP3 ADD SWAP2 JUMPDEST POP POP POP POP POP SWAP1 POP SWAP1 JUMP JUMPDEST PUSH2 0xE3A PUSH2 0xE33 PUSH2 0x1187 JUMP JUMPDEST DUP4 DUP4 PUSH2 0x14F7 JUMP JUMPDEST POP POP JUMP JUMPDEST PUSH2 0xE49 DUP5 DUP5 DUP5 PUSH2 0x74E JUMP JUMPDEST PUSH2 0xE5D PUSH2 0xE54 PUSH2 0x1187 JUMP JUMPDEST DUP6 DUP6 DUP6 DUP6 PUSH2 0x1660 JUMP JUMPDEST POP POP POP POP JUMP JUMPDEST PUSH1 0x60 PUSH2 0xE6E DUP3 PUSH2 0x10C8 JUMP JUMPDEST POP PUSH0 PUSH2 0xE78 PUSH2 0x180C JUMP JUMPDEST SWAP1 POP PUSH0 DUP2 MLOAD GT PUSH2 0xE96 JUMPI PUSH1 0x40 MLOAD DUP1 PUSH1 0x20 ADD PUSH1 0x40 MSTORE DUP1 PUSH0 DUP2 MSTORE POP PUSH2 0xEC1 JUMP JUMPDEST DUP1 PUSH2 0xEA0 DUP5 PUSH2 0x1822 JUMP JUMPDEST PUSH1 0x40 MLOAD PUSH1 0x20 ADD PUSH2 0xEB1 SWAP3 SWAP2 SWAP1 PUSH2 0x2E90 JUMP JUMPDEST PUSH1 0x40 MLOAD PUSH1 0x20 DUP2 DUP4 SUB SUB DUP2 MSTORE SWAP1 PUSH1 0x40 MSTORE JUMPDEST SWAP2 POP POP SWAP2 SWAP1 POP JUMP JUMPDEST PUSH1 0xE SLOAD DUP2 JUMP JUMPDEST PUSH1 0xD SLOAD DUP2 JUMP JUMPDEST PUSH0 PUSH1 0x5 PUSH0 DUP5 PUSH20 0xFFFFFFFFFFFFFFFFFFFFFFFFFFFFFFFFFFFFFFFF AND PUSH20 0xFFFFFFFFFFFFFFFFFFFFFFFFFFFFFFFFFFFFFFFF AND DUP2 MSTORE PUSH1 0x20 ADD SWAP1 DUP2 MSTORE PUSH1 0x20 ADD PUSH0 KECCAK256 PUSH0 DUP4 PUSH20 0xFFFFFFFFFFFFFFFFFFFFFFFFFFFFFFFFFFFFFFFF AND PUSH20 0xFFFFFFFFFFFFFFFFFFFFFFFFFFFFFFFFFFFFFFFF AND DUP2 MSTORE PUSH1 0x20 ADD SWAP1 DUP2 MSTORE PUSH1 0x20 ADD PUSH0 KECCAK256 PUSH0 SWAP1 SLOAD SWAP1 PUSH2 0x100 EXP SWAP1 DIV PUSH1 0xFF AND SWAP1 POP SWAP3 SWAP2 POP POP JUMP JUMPDEST PUSH2 0xF6B PUSH2 0x11A0 JUMP JUMPDEST PUSH0 PUSH20 0xFFFFFFFFFFFFFFFFFFFFFFFFFFFFFFFFFFFFFFFF AND DUP2 PUSH20 0xFFFFFFFFFFFFFFFFFFFFFFFFFFFFFFFFFFFFFFFF AND SUB PUSH2 0xFDB JUMPI PUSH0 PUSH1 0x40 MLOAD PUSH32 0x1E4FBDF700000000000000000000000000000000000000000000000000000000 DUP2 MSTORE PUSH1 0x4 ADD PUSH2 0xFD2 SWAP2 SWAP1 PUSH2 0x247C JUMP JUMPDEST PUSH1 0x40 MLOAD DUP1 SWAP2 SUB SWAP1 REVERT JUMPDEST PUSH2 0xFE4 DUP2 PUSH2 0x1434 JUMP JUMPDEST POP JUMP JUMPDEST PUSH0 PUSH32 0x80AC58CD00000000000000000000000000000000000000000000000000000000 PUSH28 0xFFFFFFFFFFFFFFFFFFFFFFFFFFFFFFFFFFFFFFFFFFFFFFFFFFFFFFFF NOT AND DUP3 PUSH28 0xFFFFFFFFFFFFFFFFFFFFFFFFFFFFFFFFFFFFFFFFFFFFFFFFFFFFFFFF NOT AND EQ DUP1 PUSH2 0x10B1 JUMPI POP PUSH32 0x5B5E139F00000000000000000000000000000000000000000000000000000000 PUSH28 0xFFFFFFFFFFFFFFFFFFFFFFFFFFFFFFFFFFFFFFFFFFFFFFFFFFFFFFFF NOT AND DUP3 PUSH28 0xFFFFFFFFFFFFFFFFFFFFFFFFFFFFFFFFFFFFFFFFFFFFFFFFFFFFFFFF NOT AND EQ JUMPDEST DUP1 PUSH2 0x10C1 JUMPI POP PUSH2 0x10C0 DUP3 PUSH2 0x18EC JUMP JUMPDEST JUMPDEST SWAP1 POP SWAP2 SWAP1 POP JUMP JUMPDEST PUSH0 DUP1 PUSH2 0x10D3 DUP4 PUSH2 0x1955 JUMP JUMPDEST SWAP1 POP PUSH0 PUSH20 0xFFFFFFFFFFFFFFFFFFFFFFFFFFFFFFFFFFFFFFFF AND DUP2 PUSH20 0xFFFFFFFFFFFFFFFFFFFFFFFFFFFFFFFFFFFFFFFF AND SUB PUSH2 0x1145 JUMPI DUP3 PUSH1 0x40 MLOAD PUSH32 0x7E27328900000000000000000000000000000000000000000000000000000000 DUP2 MSTORE PUSH1 0x4 ADD PUSH2 0x113C SWAP2 SWAP1 PUSH2 0x26D4 JUMP JUMPDEST PUSH1 0x40 MLOAD DUP1 SWAP2 SUB SWAP1 REVERT JUMPDEST DUP1 SWAP2 POP POP SWAP2 SWAP1 POP JUMP JUMPDEST PUSH0 PUSH1 0x4 PUSH0 DUP4 DUP2 MSTORE PUSH1 0x20 ADD SWAP1 DUP2 MSTORE PUSH1 0x20 ADD PUSH0 KECCAK256 PUSH0 SWAP1 SLOAD SWAP1 PUSH2 0x100 EXP SWAP1 DIV PUSH20 0xFFFFFFFFFFFFFFFFFFFFFFFFFFFFFFFFFFFFFFFF AND SWAP1 POP SWAP2 SWAP1 POP JUMP JUMPDEST PUSH0 CALLER SWAP1 POP SWAP1 JUMP JUMPDEST PUSH2 0x119B DUP4 DUP4 DUP4 PUSH1 0x1 PUSH2 0x198E JUMP JUMPDEST POP POP POP JUMP JUMPDEST PUSH2 0x11A8 PUSH2 0x1187 JUMP JUMPDEST PUSH20 0xFFFFFFFFFFFFFFFFFFFFFFFFFFFFFFFFFFFFFFFF AND PUSH2 0x11C6 PUSH2 0xD70 JUMP JUMPDEST PUSH20 0xFFFFFFFFFFFFFFFFFFFFFFFFFFFFFFFFFFFFFFFF AND EQ PUSH2 0x1225 JUMPI PUSH2 0x11E9 PUSH2 0x1187 JUMP JUMPDEST PUSH1 0x40 MLOAD PUSH32 0x118CDAA700000000000000000000000000000000000000000000000000000000 DUP2 MSTORE PUSH1 0x4 ADD PUSH2 0x121C SWAP2 SWAP1 PUSH2 0x247C JUMP JUMPDEST PUSH1 0x40 MLOAD DUP1 SWAP2 SUB SWAP1 REVERT JUMPDEST JUMP JUMPDEST PUSH0 PUSH20 0xFFFFFFFFFFFFFFFFFFFFFFFFFFFFFFFFFFFFFFFF AND DUP3 PUSH20 0xFFFFFFFFFFFFFFFFFFFFFFFFFFFFFFFFFFFFFFFF AND SUB PUSH2 0x1297 JUMPI PUSH0 PUSH1 0x40 MLOAD PUSH32 0x64A0AE9200000000000000000000000000000000000000000000000000000000 DUP2 MSTORE PUSH1 0x4 ADD PUSH2 0x128E SWAP2 SWAP1 PUSH2 0x247C JUMP JUMPDEST PUSH1 0x40 MLOAD DUP1 SWAP2 SUB SWAP1 REVERT JUMPDEST PUSH0 PUSH2 0x12A3 DUP4 DUP4 PUSH0 PUSH2 0x131A JUMP JUMPDEST SWAP1 POP PUSH0 PUSH20 0xFFFFFFFFFFFFFFFFFFFFFFFFFFFFFFFFFFFFFFFF AND DUP2 PUSH20 0xFFFFFFFFFFFFFFFFFFFFFFFFFFFFFFFFFFFFFFFF AND EQ PUSH2 0x1315 JUMPI PUSH0 PUSH1 0x40 MLOAD PUSH32 0x73C6AC6E00000000000000000000000000000000000000000000000000000000 DUP2 MSTORE PUSH1 0x4 ADD PUSH2 0x130C SWAP2 SWAP1 PUSH2 0x247C JUMP JUMPDEST PUSH1 0x40 MLOAD DUP1 SWAP2 SUB SWAP1 REVERT JUMPDEST POP POP POP JUMP JUMPDEST PUSH0 DUP1 PUSH2 0x1327 DUP6 DUP6 DUP6 PUSH2 0x1B4D JUMP JUMPDEST SWAP1 POP PUSH0 PUSH20 0xFFFFFFFFFFFFFFFFFFFFFFFFFFFFFFFFFFFFFFFF AND DUP2 PUSH20 0xFFFFFFFFFFFFFFFFFFFFFFFFFFFFFFFFFFFFFFFF AND SUB PUSH2 0x136A JUMPI PUSH2 0x1365 DUP5 PUSH2 0x1D58 JUMP JUMPDEST PUSH2 0x13A9 JUMP JUMPDEST DUP5 PUSH20 0xFFFFFFFFFFFFFFFFFFFFFFFFFFFFFFFFFFFFFFFF AND DUP2 PUSH20 0xFFFFFFFFFFFFFFFFFFFFFFFFFFFFFFFFFFFFFFFF AND EQ PUSH2 0x13A8 JUMPI PUSH2 0x13A7 DUP2 DUP6 PUSH2 0x1D9C JUMP JUMPDEST JUMPDEST JUMPDEST PUSH0 PUSH20 0xFFFFFFFFFFFFFFFFFFFFFFFFFFFFFFFFFFFFFFFF AND DUP6 PUSH20 0xFFFFFFFFFFFFFFFFFFFFFFFFFFFFFFFFFFFFFFFF AND SUB PUSH2 0x13EA JUMPI PUSH2 0x13E5 DUP5 PUSH2 0x1E73 JUMP JUMPDEST PUSH2 0x1429 JUMP JUMPDEST DUP5 PUSH20 0xFFFFFFFFFFFFFFFFFFFFFFFFFFFFFFFFFFFFFFFF AND DUP2 PUSH20 0xFFFFFFFFFFFFFFFFFFFFFFFFFFFFFFFFFFFFFFFF AND EQ PUSH2 0x1428 JUMPI PUSH2 0x1427 DUP6 DUP6 PUSH2 0x1F33 JUMP JUMPDEST JUMPDEST JUMPDEST DUP1 SWAP2 POP POP SWAP4 SWAP3 POP POP POP JUMP JUMPDEST PUSH0 PUSH1 0xA PUSH0 SWAP1 SLOAD SWAP1 PUSH2 0x100 EXP SWAP1 DIV PUSH20 0xFFFFFFFFFFFFFFFFFFFFFFFFFFFFFFFFFFFFFFFF AND SWAP1 POP DUP2 PUSH1 0xA PUSH0 PUSH2 0x100 EXP DUP2 SLOAD DUP2 PUSH20 0xFFFFFFFFFFFFFFFFFFFFFFFFFFFFFFFFFFFFFFFF MUL NOT AND SWAP1 DUP4 PUSH20 0xFFFFFFFFFFFFFFFFFFFFFFFFFFFFFFFFFFFFFFFF AND MUL OR SWAP1 SSTORE POP DUP2 PUSH20 0xFFFFFFFFFFFFFFFFFFFFFFFFFFFFFFFFFFFFFFFF AND DUP2 PUSH20 0xFFFFFFFFFFFFFFFFFFFFFFFFFFFFFFFFFFFFFFFF AND PUSH32 0x8BE0079C531659141344CD1FD0A4F28419497F9722A3DAAFE3B4186F6B6457E0 PUSH1 0x40 MLOAD PUSH1 0x40 MLOAD DUP1 SWAP2 SUB SWAP1 LOG3 POP POP JUMP JUMPDEST PUSH0 PUSH20 0xFFFFFFFFFFFFFFFFFFFFFFFFFFFFFFFFFFFFFFFF AND DUP3 PUSH20 0xFFFFFFFFFFFFFFFFFFFFFFFFFFFFFFFFFFFFFFFF AND SUB PUSH2 0x1567 JUMPI DUP2 PUSH1 0x40 MLOAD PUSH32 0x5B08BA1800000000000000000000000000000000000000000000000000000000 DUP2 MSTORE PUSH1 0x4 ADD PUSH2 0x155E SWAP2 SWAP1 PUSH2 0x247C JUMP JUMPDEST PUSH1 0x40 MLOAD DUP1 SWAP2 SUB SWAP1 REVERT JUMPDEST DUP1 PUSH1 0x5 PUSH0 DUP6 PUSH20 0xFFFFFFFFFFFFFFFFFFFFFFFFFFFFFFFFFFFFFFFF AND PUSH20 0xFFFFFFFFFFFFFFFFFFFFFFFFFFFFFFFFFFFFFFFF AND DUP2 MSTORE PUSH1 0x20 ADD SWAP1 DUP2 MSTORE PUSH1 0x20 ADD PUSH0 KECCAK256 PUSH0 DUP5 PUSH20 0xFFFFFFFFFFFFFFFFFFFFFFFFFFFFFFFFFFFFFFFF AND PUSH20 0xFFFFFFFFFFFFFFFFFFFFFFFFFFFFFFFFFFFFFFFF AND DUP2 MSTORE PUSH1 0x20 ADD SWAP1 DUP2 MSTORE PUSH1 0x20 ADD PUSH0 KECCAK256 PUSH0 PUSH2 0x100 EXP DUP2 SLOAD DUP2 PUSH1 0xFF MUL NOT AND SWAP1 DUP4 ISZERO ISZERO MUL OR SWAP1 SSTORE POP DUP2 PUSH20 0xFFFFFFFFFFFFFFFFFFFFFFFFFFFFFFFFFFFFFFFF AND DUP4 PUSH20 0xFFFFFFFFFFFFFFFFFFFFFFFFFFFFFFFFFFFFFFFF AND PUSH32 0x17307EAB39AB6107E8899845AD3D59BD9653F200F220920489CA2B5937696C31 DUP4 PUSH1 0x40 MLOAD PUSH2 0x1653 SWAP2 SWAP1 PUSH2 0x2336 JUMP JUMPDEST PUSH1 0x40 MLOAD DUP1 SWAP2 SUB SWAP1 LOG3 POP POP POP JUMP JUMPDEST PUSH0 DUP4 PUSH20 0xFFFFFFFFFFFFFFFFFFFFFFFFFFFFFFFFFFFFFFFF AND EXTCODESIZE GT ISZERO PUSH2 0x1805 JUMPI DUP3 PUSH20 0xFFFFFFFFFFFFFFFFFFFFFFFFFFFFFFFFFFFFFFFF AND PUSH4 0x150B7A02 DUP7 DUP7 DUP6 DUP6 PUSH1 0x40 MLOAD DUP6 PUSH4 0xFFFFFFFF AND PUSH1 0xE0 SHL DUP2 MSTORE PUSH1 0x4 ADD PUSH2 0x16BE SWAP5 SWAP4 SWAP3 SWAP2 SWAP1 PUSH2 0x2F05 JUMP JUMPDEST PUSH1 0x20 PUSH1 0x40 MLOAD DUP1 DUP4 SUB DUP2 PUSH0 DUP8 GAS CALL SWAP3 POP POP POP DUP1 ISZERO PUSH2 0x16F9 JUMPI POP PUSH1 0x40 MLOAD RETURNDATASIZE PUSH1 0x1F NOT PUSH1 0x1F DUP3 ADD AND DUP3 ADD DUP1 PUSH1 0x40 MSTORE POP DUP2 ADD SWAP1 PUSH2 0x16F6 SWAP2 SWAP1 PUSH2 0x2F63 JUMP JUMPDEST PUSH1 0x1 JUMPDEST PUSH2 0x177A JUMPI RETURNDATASIZE DUP1 PUSH0 DUP2 EQ PUSH2 0x1727 JUMPI PUSH1 0x40 MLOAD SWAP2 POP PUSH1 0x1F NOT PUSH1 0x3F RETURNDATASIZE ADD AND DUP3 ADD PUSH1 0x40 MSTORE RETURNDATASIZE DUP3 MSTORE RETURNDATASIZE PUSH0 PUSH1 0x20 DUP5 ADD RETURNDATACOPY PUSH2 0x172C JUMP JUMPDEST PUSH1 0x60 SWAP2 POP JUMPDEST POP PUSH0 DUP2 MLOAD SUB PUSH2 0x1772 JUMPI DUP4 PUSH1 0x40 MLOAD PUSH32 0x64A0AE9200000000000000000000000000000000000000000000000000000000 DUP2 MSTORE PUSH1 0x4 ADD PUSH2 0x1769 SWAP2 SWAP1 PUSH2 0x247C JUMP JUMPDEST PUSH1 0x40 MLOAD DUP1 SWAP2 SUB SWAP1 REVERT JUMPDEST DUP1 MLOAD DUP2 PUSH1 0x20 ADD REVERT JUMPDEST PUSH4 0x150B7A02 PUSH1 0xE0 SHL PUSH28 0xFFFFFFFFFFFFFFFFFFFFFFFFFFFFFFFFFFFFFFFFFFFFFFFFFFFFFFFF NOT AND DUP2 PUSH28 0xFFFFFFFFFFFFFFFFFFFFFFFFFFFFFFFFFFFFFFFFFFFFFFFFFFFFFFFF NOT AND EQ PUSH2 0x1803 JUMPI DUP4 PUSH1 0x40 MLOAD PUSH32 0x64A0AE9200000000000000000000000000000000000000000000000000000000 DUP2 MSTORE PUSH1 0x4 ADD PUSH2 0x17FA SWAP2 SWAP1 PUSH2 0x247C JUMP JUMPDEST PUSH1 0x40 MLOAD DUP1 SWAP2 SUB SWAP1 REVERT JUMPDEST POP JUMPDEST POP POP POP POP POP JUMP JUMPDEST PUSH1 0x60 PUSH1 0x40 MLOAD DUP1 PUSH1 0x20 ADD PUSH1 0x40 MSTORE DUP1 PUSH0 DUP2 MSTORE POP SWAP1 POP SWAP1 JUMP JUMPDEST PUSH1 0x60 PUSH0 PUSH1 0x1 PUSH2 0x1830 DUP5 PUSH2 0x1FB7 JUMP JUMPDEST ADD SWAP1 POP PUSH0 DUP2 PUSH8 0xFFFFFFFFFFFFFFFF DUP2 GT ISZERO PUSH2 0x184E JUMPI PUSH2 0x184D PUSH2 0x2501 JUMP JUMPDEST JUMPDEST PUSH1 0x40 MLOAD SWAP1 DUP1 DUP3 MSTORE DUP1 PUSH1 0x1F ADD PUSH1 0x1F NOT AND PUSH1 0x20 ADD DUP3 ADD PUSH1 0x40 MSTORE DUP1 ISZERO PUSH2 0x1880 JUMPI DUP2 PUSH1 0x20 ADD PUSH1 0x1 DUP3 MUL DUP1 CALLDATASIZE DUP4 CALLDATACOPY DUP1 DUP3 ADD SWAP2 POP POP SWAP1 POP JUMPDEST POP SWAP1 POP PUSH0 DUP3 PUSH1 0x20 ADD DUP3 ADD SWAP1 POP JUMPDEST PUSH1 0x1 ISZERO PUSH2 0x18E1 JUMPI DUP1 DUP1 PUSH1 0x1 SWAP1 SUB SWAP2 POP POP PUSH32 0x3031323334353637383961626364656600000000000000000000000000000000 PUSH1 0xA DUP7 MOD BYTE DUP2 MSTORE8 PUSH1 0xA DUP6 DUP2 PUSH2 0x18D6 JUMPI PUSH2 0x18D5 PUSH2 0x2F8E JUMP JUMPDEST JUMPDEST DIV SWAP5 POP PUSH0 DUP6 SUB PUSH2 0x188D JUMPI JUMPDEST DUP2 SWAP4 POP POP POP POP SWAP2 SWAP1 POP JUMP JUMPDEST PUSH0 PUSH32 0x1FFC9A700000000000000000000000000000000000000000000000000000000 PUSH28 0xFFFFFFFFFFFFFFFFFFFFFFFFFFFFFFFFFFFFFFFFFFFFFFFFFFFFFFFF NOT AND DUP3 PUSH28 0xFFFFFFFFFFFFFFFFFFFFFFFFFFFFFFFFFFFFFFFFFFFFFFFFFFFFFFFF NOT AND EQ SWAP1 POP SWAP2 SWAP1 POP JUMP JUMPDEST PUSH0 PUSH1 0x2 PUSH0 DUP4 DUP2 MSTORE PUSH1 0x20 ADD SWAP1 DUP2 MSTORE PUSH1 0x20 ADD PUSH0 KECCAK256 PUSH0 SWAP1 SLOAD SWAP1 PUSH2 0x100 EXP SWAP1 DIV PUSH20 0xFFFFFFFFFFFFFFFFFFFFFFFFFFFFFFFFFFFFFFFF AND SWAP1 POP SWAP2 SWAP1 POP JUMP JUMPDEST DUP1 DUP1 PUSH2 0x19C6 JUMPI POP PUSH0 PUSH20 0xFFFFFFFFFFFFFFFFFFFFFFFFFFFFFFFFFFFFFFFF AND DUP3 PUSH20 0xFFFFFFFFFFFFFFFFFFFFFFFFFFFFFFFFFFFFFFFF AND EQ ISZERO JUMPDEST ISZERO PUSH2 0x1AF8 JUMPI PUSH0 PUSH2 0x19D5 DUP5 PUSH2 0x10C8 JUMP JUMPDEST SWAP1 POP PUSH0 PUSH20 0xFFFFFFFFFFFFFFFFFFFFFFFFFFFFFFFFFFFFFFFF AND DUP4 PUSH20 0xFFFFFFFFFFFFFFFFFFFFFFFFFFFFFFFFFFFFFFFF AND EQ ISZERO DUP1 ISZERO PUSH2 0x1A3F JUMPI POP DUP3 PUSH20 0xFFFFFFFFFFFFFFFFFFFFFFFFFFFFFFFFFFFFFFFF AND DUP2 PUSH20 0xFFFFFFFFFFFFFFFFFFFFFFFFFFFFFFFFFFFFFFFF AND EQ ISZERO JUMPDEST DUP1 ISZERO PUSH2 0x1A52 JUMPI POP PUSH2 0x1A50 DUP2 DUP5 PUSH2 0xED5 JUMP JUMPDEST ISZERO JUMPDEST ISZERO PUSH2 0x1A94 JUMPI DUP3 PUSH1 0x40 MLOAD PUSH32 0xA9FBF51F00000000000000000000000000000000000000000000000000000000 DUP2 MSTORE PUSH1 0x4 ADD PUSH2 0x1A8B SWAP2 SWAP1 PUSH2 0x247C JUMP JUMPDEST PUSH1 0x40 MLOAD DUP1 SWAP2 SUB SWAP1 REVERT JUMPDEST DUP2 ISZERO PUSH2 0x1AF6 JUMPI DUP4 DUP6 PUSH20 0xFFFFFFFFFFFFFFFFFFFFFFFFFFFFFFFFFFFFFFFF AND DUP3 PUSH20 0xFFFFFFFFFFFFFFFFFFFFFFFFFFFFFFFFFFFFFFFF AND PUSH32 0x8C5BE1E5EBEC7D5BD14F71427D1E84F3DD0314C0F7B2291E5B200AC8C7C3B925 PUSH1 0x40 MLOAD PUSH1 0x40 MLOAD DUP1 SWAP2 SUB SWAP1 LOG4 JUMPDEST POP JUMPDEST DUP4 PUSH1 0x4 PUSH0 DUP6 DUP2 MSTORE PUSH1 0x20 ADD SWAP1 DUP2 MSTORE PUSH1 0x20 ADD PUSH0 KECCAK256 PUSH0 PUSH2 0x100 EXP DUP2 SLOAD DUP2 PUSH20 0xFFFFFFFFFFFFFFFFFFFFFFFFFFFFFFFFFFFFFFFF MUL NOT AND SWAP1 DUP4 PUSH20 0xFFFFFFFFFFFFFFFFFFFFFFFFFFFFFFFFFFFFFFFF AND MUL OR SWAP1 SSTORE POP POP POP POP POP JUMP JUMPDEST PUSH0 DUP1 PUSH2 0x1B58 DUP5 PUSH2 0x1955 JUMP JUMPDEST SWAP1 POP PUSH0 PUSH20 0xFFFFFFFFFFFFFFFFFFFFFFFFFFFFFFFFFFFFFFFF AND DUP4 PUSH20 0xFFFFFFFFFFFFFFFFFFFFFFFFFFFFFFFFFFFFFFFF AND EQ PUSH2 0x1B99 JUMPI PUSH2 0x1B98 DUP2 DUP5 DUP7 PUSH2 0x2108 JUMP JUMPDEST JUMPDEST PUSH0 PUSH20 0xFFFFFFFFFFFFFFFFFFFFFFFFFFFFFFFFFFFFFFFF AND DUP2 PUSH20 0xFFFFFFFFFFFFFFFFFFFFFFFFFFFFFFFFFFFFFFFF AND EQ PUSH2 0x1C24 JUMPI PUSH2 0x1BD8 PUSH0 DUP6 PUSH0 DUP1 PUSH2 0x198E JUMP JUMPDEST PUSH1 0x1 PUSH1 0x3 PUSH0 DUP4 PUSH20 0xFFFFFFFFFFFFFFFFFFFFFFFFFFFFFFFFFFFFFFFF AND PUSH20 0xFFFFFFFFFFFFFFFFFFFFFFFFFFFFFFFFFFFFFFFF AND DUP2 MSTORE PUSH1 0x20 ADD SWAP1 DUP2 MSTORE PUSH1 0x20 ADD PUSH0 KECCAK256 PUSH0 DUP3 DUP3 SLOAD SUB SWAP3 POP POP DUP2 SWAP1 SSTORE POP JUMPDEST PUSH0 PUSH20 0xFFFFFFFFFFFFFFFFFFFFFFFFFFFFFFFFFFFFFFFF AND DUP6 PUSH20 0xFFFFFFFFFFFFFFFFFFFFFFFFFFFFFFFFFFFFFFFF AND EQ PUSH2 0x1CA3 JUMPI PUSH1 0x1 PUSH1 0x3 PUSH0 DUP8 PUSH20 0xFFFFFFFFFFFFFFFFFFFFFFFFFFFFFFFFFFFFFFFF AND PUSH20 0xFFFFFFFFFFFFFFFFFFFFFFFFFFFFFFFFFFFFFFFF AND DUP2 MSTORE PUSH1 0x20 ADD SWAP1 DUP2 MSTORE PUSH1 0x20 ADD PUSH0 KECCAK256 PUSH0 DUP3 DUP3 SLOAD ADD SWAP3 POP POP DUP2 SWAP1 SSTORE POP JUMPDEST DUP5 PUSH1 0x2 PUSH0 DUP7 DUP2 MSTORE PUSH1 0x20 ADD SWAP1 DUP2 MSTORE PUSH1 0x20 ADD PUSH0 KECCAK256 PUSH0 PUSH2 0x100 EXP DUP2 SLOAD DUP2 PUSH20 0xFFFFFFFFFFFFFFFFFFFFFFFFFFFFFFFFFFFFFFFF MUL NOT AND SWAP1 DUP4 PUSH20 0xFFFFFFFFFFFFFFFFFFFFFFFFFFFFFFFFFFFFFFFF AND MUL OR SWAP1 SSTORE POP DUP4 DUP6 PUSH20 0xFFFFFFFFFFFFFFFFFFFFFFFFFFFFFFFFFFFFFFFF AND DUP3 PUSH20 0xFFFFFFFFFFFFFFFFFFFFFFFFFFFFFFFFFFFFFFFF AND PUSH32 0xDDF252AD1BE2C89B69C2B068FC378DAA952BA7F163C4A11628F55A4DF523B3EF PUSH1 0x40 MLOAD PUSH1 0x40 MLOAD DUP1 SWAP2 SUB SWAP1 LOG4 DUP1 SWAP2 POP POP SWAP4 SWAP3 POP POP POP JUMP JUMPDEST PUSH1 0x8 DUP1 SLOAD SWAP1 POP PUSH1 0x9 PUSH0 DUP4 DUP2 MSTORE PUSH1 0x20 ADD SWAP1 DUP2 MSTORE PUSH1 0x20 ADD PUSH0 KECCAK256 DUP2 SWAP1 SSTORE POP PUSH1 0x8 DUP2 SWAP1 DUP1 PUSH1 0x1 DUP2 SLOAD ADD DUP1 DUP3 SSTORE DUP1 SWAP2 POP POP PUSH1 0x1 SWAP1 SUB SWAP1 PUSH0 MSTORE PUSH1 0x20 PUSH0 KECCAK256 ADD PUSH0 SWAP1 SWAP2 SWAP1 SWAP2 SWAP1 SWAP2 POP SSTORE POP JUMP JUMPDEST PUSH0 PUSH2 0x1DA6 DUP4 PUSH2 0xBC2 JUMP JUMPDEST SWAP1 POP PUSH0 PUSH1 0x7 PUSH0 DUP5 DUP2 MSTORE PUSH1 0x20 ADD SWAP1 DUP2 MSTORE PUSH1 0x20 ADD PUSH0 KECCAK256 SLOAD SWAP1 POP PUSH0 PUSH1 0x6 PUSH0 DUP7 PUSH20 0xFFFFFFFFFFFFFFFFFFFFFFFFFFFFFFFFFFFFFFFF AND PUSH20 0xFFFFFFFFFFFFFFFFFFFFFFFFFFFFFFFFFFFFFFFF AND DUP2 MSTORE PUSH1 0x20 ADD SWAP1 DUP2 MSTORE PUSH1 0x20 ADD PUSH0 KECCAK256 SWAP1 POP DUP3 DUP3 EQ PUSH2 0x1E45 JUMPI PUSH0 DUP2 PUSH0 DUP6 DUP2 MSTORE PUSH1 0x20 ADD SWAP1 DUP2 MSTORE PUSH1 0x20 ADD PUSH0 KECCAK256 SLOAD SWAP1 POP DUP1 DUP3 PUSH0 DUP6 DUP2 MSTORE PUSH1 0x20 ADD SWAP1 DUP2 MSTORE PUSH1 0x20 ADD PUSH0 KECCAK256 DUP2 SWAP1 SSTORE POP DUP3 PUSH1 0x7 PUSH0 DUP4 DUP2 MSTORE PUSH1 0x20 ADD SWAP1 DUP2 MSTORE PUSH1 0x20 ADD PUSH0 KECCAK256 DUP2 SWAP1 SSTORE POP POP JUMPDEST PUSH1 0x7 PUSH0 DUP6 DUP2 MSTORE PUSH1 0x20 ADD SWAP1 DUP2 MSTORE PUSH1 0x20 ADD PUSH0 KECCAK256 PUSH0 SWAP1 SSTORE DUP1 PUSH0 DUP5 DUP2 MSTORE PUSH1 0x20 ADD SWAP1 DUP2 MSTORE PUSH1 0x20 ADD PUSH0 KECCAK256 PUSH0 SWAP1 SSTORE POP POP POP POP POP JUMP JUMPDEST PUSH0 PUSH1 0x1 PUSH1 0x8 DUP1 SLOAD SWAP1 POP PUSH2 0x1E86 SWAP2 SWAP1 PUSH2 0x2FBB JUMP JUMPDEST SWAP1 POP PUSH0 PUSH1 0x9 PUSH0 DUP5 DUP2 MSTORE PUSH1 0x20 ADD SWAP1 DUP2 MSTORE PUSH1 0x20 ADD PUSH0 KECCAK256 SLOAD SWAP1 POP PUSH0 PUSH1 0x8 DUP4 DUP2 SLOAD DUP2 LT PUSH2 0x1EB2 JUMPI PUSH2 0x1EB1 PUSH2 0x2B5F JUMP JUMPDEST JUMPDEST SWAP1 PUSH0 MSTORE PUSH1 0x20 PUSH0 KECCAK256 ADD SLOAD SWAP1 POP DUP1 PUSH1 0x8 DUP4 DUP2 SLOAD DUP2 LT PUSH2 0x1ED2 JUMPI PUSH2 0x1ED1 PUSH2 0x2B5F JUMP JUMPDEST JUMPDEST SWAP1 PUSH0 MSTORE PUSH1 0x20 PUSH0 KECCAK256 ADD DUP2 SWAP1 SSTORE POP DUP2 PUSH1 0x9 PUSH0 DUP4 DUP2 MSTORE PUSH1 0x20 ADD SWAP1 DUP2 MSTORE PUSH1 0x20 ADD PUSH0 KECCAK256 DUP2 SWAP1 SSTORE POP PUSH1 0x9 PUSH0 DUP6 DUP2 MSTORE PUSH1 0x20 ADD SWAP1 DUP2 MSTORE PUSH1 0x20 ADD PUSH0 KECCAK256 PUSH0 SWAP1 SSTORE PUSH1 0x8 DUP1 SLOAD DUP1 PUSH2 0x1F1A JUMPI PUSH2 0x1F19 PUSH2 0x2FEE JUMP JUMPDEST JUMPDEST PUSH1 0x1 SWAP1 SUB DUP2 DUP2 SWAP1 PUSH0 MSTORE PUSH1 0x20 PUSH0 KECCAK256 ADD PUSH0 SWAP1 SSTORE SWAP1 SSTORE POP POP POP POP JUMP JUMPDEST PUSH0 PUSH1 0x1 PUSH2 0x1F3F DUP5 PUSH2 0xBC2 JUMP JUMPDEST PUSH2 0x1F49 SWAP2 SWAP1 PUSH2 0x2FBB JUMP JUMPDEST SWAP1 POP DUP2 PUSH1 0x6 PUSH0 DUP6 PUSH20 0xFFFFFFFFFFFFFFFFFFFFFFFFFFFFFFFFFFFFFFFF AND PUSH20 0xFFFFFFFFFFFFFFFFFFFFFFFFFFFFFFFFFFFFFFFF AND DUP2 MSTORE PUSH1 0x20 ADD SWAP1 DUP2 MSTORE PUSH1 0x20 ADD PUSH0 KECCAK256 PUSH0 DUP4 DUP2 MSTORE PUSH1 0x20 ADD SWAP1 DUP2 MSTORE PUSH1 0x20 ADD PUSH0 KECCAK256 DUP2 SWAP1 SSTORE POP DUP1 PUSH1 0x7 PUSH0 DUP5 DUP2 MSTORE PUSH1 0x20 ADD SWAP1 DUP2 MSTORE PUSH1 0x20 ADD PUSH0 KECCAK256 DUP2 SWAP1 SSTORE POP POP POP POP JUMP JUMPDEST PUSH0 DUP1 PUSH0 SWAP1 POP PUSH27 0x184F03E93FF9F4DAA797ED6E38ED64BF6A1F010000000000000000 DUP4 LT PUSH2 0x2013 JUMPI PUSH27 0x184F03E93FF9F4DAA797ED6E38ED64BF6A1F010000000000000000 DUP4 DUP2 PUSH2 0x2009 JUMPI PUSH2 0x2008 PUSH2 0x2F8E JUMP JUMPDEST JUMPDEST DIV SWAP3 POP PUSH1 0x40 DUP2 ADD SWAP1 POP JUMPDEST PUSH14 0x4EE2D6D415B85ACEF8100000000 DUP4 LT PUSH2 0x2050 JUMPI PUSH14 0x4EE2D6D415B85ACEF8100000000 DUP4 DUP2 PUSH2 0x2046 JUMPI PUSH2 0x2045 PUSH2 0x2F8E JUMP JUMPDEST JUMPDEST DIV SWAP3 POP PUSH1 0x20 DUP2 ADD SWAP1 POP JUMPDEST PUSH7 0x2386F26FC10000 DUP4 LT PUSH2 0x207F JUMPI PUSH7 0x2386F26FC10000 DUP4 DUP2 PUSH2 0x2075 JUMPI PUSH2 0x2074 PUSH2 0x2F8E JUMP JUMPDEST JUMPDEST DIV SWAP3 POP PUSH1 0x10 DUP2 ADD SWAP1 POP JUMPDEST PUSH4 0x5F5E100 DUP4 LT PUSH2 0x20A8 JUMPI PUSH4 0x5F5E100 DUP4 DUP2 PUSH2 0x209E JUMPI PUSH2 0x209D PUSH2 0x2F8E JUMP JUMPDEST JUMPDEST DIV SWAP3 POP PUSH1 0x8 DUP2 ADD SWAP1 POP JUMPDEST PUSH2 0x2710 DUP4 LT PUSH2 0x20CD JUMPI PUSH2 0x2710 DUP4 DUP2 PUSH2 0x20C3 JUMPI PUSH2 0x20C2 PUSH2 0x2F8E JUMP JUMPDEST JUMPDEST DIV SWAP3 POP PUSH1 0x4 DUP2 ADD SWAP1 POP JUMPDEST PUSH1 0x64 DUP4 LT PUSH2 0x20F0 JUMPI PUSH1 0x64 DUP4 DUP2 PUSH2 0x20E6 JUMPI PUSH2 0x20E5 PUSH2 0x2F8E JUMP JUMPDEST JUMPDEST DIV SWAP3 POP PUSH1 0x2 DUP2 ADD SWAP1 POP JUMPDEST PUSH1 0xA DUP4 LT PUSH2 0x20FF JUMPI PUSH1 0x1 DUP2 ADD SWAP1 POP JUMPDEST DUP1 SWAP2 POP POP SWAP2 SWAP1 POP JUMP JUMPDEST PUSH2 0x2113 DUP4 DUP4 DUP4 PUSH2 0x21CB JUMP JUMPDEST PUSH2 0x21C6 JUMPI PUSH0 PUSH20 0xFFFFFFFFFFFFFFFFFFFFFFFFFFFFFFFFFFFFFFFF AND DUP4 PUSH20 0xFFFFFFFFFFFFFFFFFFFFFFFFFFFFFFFFFFFFFFFF AND SUB PUSH2 0x2187 JUMPI DUP1 PUSH1 0x40 MLOAD PUSH32 0x7E27328900000000000000000000000000000000000000000000000000000000 DUP2 MSTORE PUSH1 0x4 ADD PUSH2 0x217E SWAP2 SWAP1 PUSH2 0x26D4 JUMP JUMPDEST PUSH1 0x40 MLOAD DUP1 SWAP2 SUB SWAP1 REVERT JUMPDEST DUP2 DUP2 PUSH1 0x40 MLOAD PUSH32 0x177E802F00000000000000000000000000000000000000000000000000000000 DUP2 MSTORE PUSH1 0x4 ADD PUSH2 0x21BD SWAP3 SWAP2 SWAP1 PUSH2 0x2E2F JUMP JUMPDEST PUSH1 0x40 MLOAD DUP1 SWAP2 SUB SWAP1 REVERT JUMPDEST POP POP POP JUMP JUMPDEST PUSH0 DUP1 PUSH20 0xFFFFFFFFFFFFFFFFFFFFFFFFFFFFFFFFFFFFFFFF AND DUP4 PUSH20 0xFFFFFFFFFFFFFFFFFFFFFFFFFFFFFFFFFFFFFFFF AND EQ ISZERO DUP1 ISZERO PUSH2 0x2282 JUMPI POP DUP3 PUSH20 0xFFFFFFFFFFFFFFFFFFFFFFFFFFFFFFFFFFFFFFFF AND DUP5 PUSH20 0xFFFFFFFFFFFFFFFFFFFFFFFFFFFFFFFFFFFFFFFF AND EQ DUP1 PUSH2 0x2243 JUMPI POP PUSH2 0x2242 DUP5 DUP5 PUSH2 0xED5 JUMP JUMPDEST JUMPDEST DUP1 PUSH2 0x2281 JUMPI POP DUP3 PUSH20 0xFFFFFFFFFFFFFFFFFFFFFFFFFFFFFFFFFFFFFFFF AND PUSH2 0x2269 DUP4 PUSH2 0x114E JUMP JUMPDEST PUSH20 0xFFFFFFFFFFFFFFFFFFFFFFFFFFFFFFFFFFFFFFFF AND EQ JUMPDEST JUMPDEST SWAP1 POP SWAP4 SWAP3 POP POP POP JUMP JUMPDEST PUSH0 PUSH1 0x40 MLOAD SWAP1 POP SWAP1 JUMP JUMPDEST PUSH0 DUP1 REVERT JUMPDEST PUSH0 DUP1 REVERT JUMPDEST PUSH0 PUSH32 0xFFFFFFFF00000000000000000000000000000000000000000000000000000000 DUP3 AND SWAP1 POP SWAP2 SWAP1 POP JUMP JUMPDEST PUSH2 0x22D0 DUP2 PUSH2 0x229C JUMP JUMPDEST DUP2 EQ PUSH2 0x22DA JUMPI PUSH0 DUP1 REVERT JUMPDEST POP JUMP JUMPDEST PUSH0 DUP2 CALLDATALOAD SWAP1 POP PUSH2 0x22EB DUP2 PUSH2 0x22C7 JUMP JUMPDEST SWAP3 SWAP2 POP POP JUMP JUMPDEST PUSH0 PUSH1 0x20 DUP3 DUP5 SUB SLT ISZERO PUSH2 0x2306 JUMPI PUSH2 0x2305 PUSH2 0x2294 JUMP JUMPDEST JUMPDEST PUSH0 PUSH2 0x2313 DUP5 DUP3 DUP6 ADD PUSH2 0x22DD JUMP JUMPDEST SWAP2 POP POP SWAP3 SWAP2 POP POP JUMP JUMPDEST PUSH0 DUP2 ISZERO ISZERO SWAP1 POP SWAP2 SWAP1 POP JUMP JUMPDEST PUSH2 0x2330 DUP2 PUSH2 0x231C JUMP JUMPDEST DUP3 MSTORE POP POP JUMP JUMPDEST PUSH0 PUSH1 0x20 DUP3 ADD SWAP1 POP PUSH2 0x2349 PUSH0 DUP4 ADD DUP5 PUSH2 0x2327 JUMP JUMPDEST SWAP3 SWAP2 POP POP JUMP JUMPDEST PUSH0 DUP2 MLOAD SWAP1 POP SWAP2 SWAP1 POP JUMP JUMPDEST PUSH0 DUP3 DUP3 MSTORE PUSH1 0x20 DUP3 ADD SWAP1 POP SWAP3 SWAP2 POP POP JUMP JUMPDEST DUP3 DUP2 DUP4 MCOPY PUSH0 DUP4 DUP4 ADD MSTORE POP POP POP JUMP JUMPDEST PUSH0 PUSH1 0x1F NOT PUSH1 0x1F DUP4 ADD AND SWAP1 POP SWAP2 SWAP1 POP JUMP JUMPDEST PUSH0 PUSH2 0x2391 DUP3 PUSH2 0x234F JUMP JUMPDEST PUSH2 0x239B DUP2 DUP6 PUSH2 0x2359 JUMP JUMPDEST SWAP4 POP PUSH2 0x23AB DUP2 DUP6 PUSH1 0x20 DUP7 ADD PUSH2 0x2369 JUMP JUMPDEST PUSH2 0x23B4 DUP2 PUSH2 0x2377 JUMP JUMPDEST DUP5 ADD SWAP2 POP POP SWAP3 SWAP2 POP POP JUMP JUMPDEST PUSH0 PUSH1 0x20 DUP3 ADD SWAP1 POP DUP2 DUP2 SUB PUSH0 DUP4 ADD MSTORE PUSH2 0x23D7 DUP2 DUP5 PUSH2 0x2387 JUMP JUMPDEST SWAP1 POP SWAP3 SWAP2 POP POP JUMP JUMPDEST PUSH0 DUP2 SWAP1 POP SWAP2 SWAP1 POP JUMP JUMPDEST PUSH2 0x23F1 DUP2 PUSH2 0x23DF JUMP JUMPDEST DUP2 EQ PUSH2 0x23FB JUMPI PUSH0 DUP1 REVERT JUMPDEST POP JUMP JUMPDEST PUSH0 DUP2 CALLDATALOAD SWAP1 POP PUSH2 0x240C DUP2 PUSH2 0x23E8 JUMP JUMPDEST SWAP3 SWAP2 POP POP JUMP JUMPDEST PUSH0 PUSH1 0x20 DUP3 DUP5 SUB SLT ISZERO PUSH2 0x2427 JUMPI PUSH2 0x2426 PUSH2 0x2294 JUMP JUMPDEST JUMPDEST PUSH0 PUSH2 0x2434 DUP5 DUP3 DUP6 ADD PUSH2 0x23FE JUMP JUMPDEST SWAP2 POP POP SWAP3 SWAP2 POP POP JUMP JUMPDEST PUSH0 PUSH20 0xFFFFFFFFFFFFFFFFFFFFFFFFFFFFFFFFFFFFFFFF DUP3 AND SWAP1 POP SWAP2 SWAP1 POP JUMP JUMPDEST PUSH0 PUSH2 0x2466 DUP3 PUSH2 0x243D JUMP JUMPDEST SWAP1 POP SWAP2 SWAP1 POP JUMP JUMPDEST PUSH2 0x2476 DUP2 PUSH2 0x245C JUMP JUMPDEST DUP3 MSTORE POP POP JUMP JUMPDEST PUSH0 PUSH1 0x20 DUP3 ADD SWAP1 POP PUSH2 0x248F PUSH0 DUP4 ADD DUP5 PUSH2 0x246D JUMP JUMPDEST SWAP3 SWAP2 POP POP JUMP JUMPDEST PUSH2 0x249E DUP2 PUSH2 0x245C JUMP JUMPDEST DUP2 EQ PUSH2 0x24A8 JUMPI PUSH0 DUP1 REVERT JUMPDEST POP JUMP JUMPDEST PUSH0 DUP2 CALLDATALOAD SWAP1 POP PUSH2 0x24B9 DUP2 PUSH2 0x2495 JUMP JUMPDEST SWAP3 SWAP2 POP POP JUMP JUMPDEST PUSH0 DUP1 PUSH1 0x40 DUP4 DUP6 SUB SLT ISZERO PUSH2 0x24D5 JUMPI PUSH2 0x24D4 PUSH2 0x2294 JUMP JUMPDEST JUMPDEST PUSH0 PUSH2 0x24E2 DUP6 DUP3 DUP7 ADD PUSH2 0x24AB JUMP JUMPDEST SWAP3 POP POP PUSH1 0x20 PUSH2 0x24F3 DUP6 DUP3 DUP7 ADD PUSH2 0x23FE JUMP JUMPDEST SWAP2 POP POP SWAP3 POP SWAP3 SWAP1 POP JUMP JUMPDEST PUSH0 DUP1 REVERT JUMPDEST PUSH32 0x4E487B7100000000000000000000000000000000000000000000000000000000 PUSH0 MSTORE PUSH1 0x41 PUSH1 0x4 MSTORE PUSH1 0x24 PUSH0 REVERT JUMPDEST PUSH2 0x2537 DUP3 PUSH2 0x2377 JUMP JUMPDEST DUP2 ADD DUP2 DUP2 LT PUSH8 0xFFFFFFFFFFFFFFFF DUP3 GT OR ISZERO PUSH2 0x2556 JUMPI PUSH2 0x2555 PUSH2 0x2501 JUMP JUMPDEST JUMPDEST DUP1 PUSH1 0x40 MSTORE POP POP POP JUMP JUMPDEST PUSH0 PUSH2 0x2568 PUSH2 0x228B JUMP JUMPDEST SWAP1 POP PUSH2 0x2574 DUP3 DUP3 PUSH2 0x252E JUMP JUMPDEST SWAP2 SWAP1 POP JUMP JUMPDEST PUSH0 PUSH8 0xFFFFFFFFFFFFFFFF DUP3 GT ISZERO PUSH2 0x2593 JUMPI PUSH2 0x2592 PUSH2 0x2501 JUMP JUMPDEST JUMPDEST PUSH1 0x20 DUP3 MUL SWAP1 POP PUSH1 0x20 DUP2 ADD SWAP1 POP SWAP2 SWAP1 POP JUMP JUMPDEST PUSH0 DUP1 REVERT JUMPDEST PUSH0 PUSH2 0x25BA PUSH2 0x25B5 DUP5 PUSH2 0x2579 JUMP JUMPDEST PUSH2 0x255F JUMP JUMPDEST SWAP1 POP DUP1 DUP4 DUP3 MSTORE PUSH1 0x20 DUP3 ADD SWAP1 POP PUSH1 0x20 DUP5 MUL DUP4 ADD DUP6 DUP2 GT ISZERO PUSH2 0x25DD JUMPI PUSH2 0x25DC PUSH2 0x25A4 JUMP JUMPDEST JUMPDEST DUP4 JUMPDEST DUP2 DUP2 LT ISZERO PUSH2 0x2606 JUMPI DUP1 PUSH2 0x25F2 DUP9 DUP3 PUSH2 0x23FE JUMP JUMPDEST DUP5 MSTORE PUSH1 0x20 DUP5 ADD SWAP4 POP POP PUSH1 0x20 DUP2 ADD SWAP1 POP PUSH2 0x25DF JUMP JUMPDEST POP POP POP SWAP4 SWAP3 POP POP POP JUMP JUMPDEST PUSH0 DUP3 PUSH1 0x1F DUP4 ADD SLT PUSH2 0x2624 JUMPI PUSH2 0x2623 PUSH2 0x24FD JUMP JUMPDEST JUMPDEST DUP2 CALLDATALOAD PUSH2 0x2634 DUP5 DUP3 PUSH1 0x20 DUP7 ADD PUSH2 0x25A8 JUMP JUMPDEST SWAP2 POP POP SWAP3 SWAP2 POP POP JUMP JUMPDEST PUSH0 DUP1 PUSH0 PUSH1 0x60 DUP5 DUP7 SUB SLT ISZERO PUSH2 0x2654 JUMPI PUSH2 0x2653 PUSH2 0x2294 JUMP JUMPDEST JUMPDEST PUSH0 PUSH2 0x2661 DUP7 DUP3 DUP8 ADD PUSH2 0x24AB JUMP JUMPDEST SWAP4 POP POP PUSH1 0x20 DUP5 ADD CALLDATALOAD PUSH8 0xFFFFFFFFFFFFFFFF DUP2 GT ISZERO PUSH2 0x2682 JUMPI PUSH2 0x2681 PUSH2 0x2298 JUMP JUMPDEST JUMPDEST PUSH2 0x268E DUP7 DUP3 DUP8 ADD PUSH2 0x2610 JUMP JUMPDEST SWAP3 POP POP PUSH1 0x40 DUP5 ADD CALLDATALOAD PUSH8 0xFFFFFFFFFFFFFFFF DUP2 GT ISZERO PUSH2 0x26AF JUMPI PUSH2 0x26AE PUSH2 0x2298 JUMP JUMPDEST JUMPDEST PUSH2 0x26BB DUP7 DUP3 DUP8 ADD PUSH2 0x2610 JUMP JUMPDEST SWAP2 POP POP SWAP3 POP SWAP3 POP SWAP3 JUMP JUMPDEST PUSH2 0x26CE DUP2 PUSH2 0x23DF JUMP JUMPDEST DUP3 MSTORE POP POP JUMP JUMPDEST PUSH0 PUSH1 0x20 DUP3 ADD SWAP1 POP PUSH2 0x26E7 PUSH0 DUP4 ADD DUP5 PUSH2 0x26C5 JUMP JUMPDEST SWAP3 SWAP2 POP POP JUMP JUMPDEST PUSH0 DUP1 PUSH0 PUSH1 0x60 DUP5 DUP7 SUB SLT ISZERO PUSH2 0x2704 JUMPI PUSH2 0x2703 PUSH2 0x2294 JUMP JUMPDEST JUMPDEST PUSH0 PUSH2 0x2711 DUP7 DUP3 DUP8 ADD PUSH2 0x24AB JUMP JUMPDEST SWAP4 POP POP PUSH1 0x20 PUSH2 0x2722 DUP7 DUP3 DUP8 ADD PUSH2 0x24AB JUMP JUMPDEST SWAP3 POP POP PUSH1 0x40 PUSH2 0x2733 DUP7 DUP3 DUP8 ADD PUSH2 0x23FE JUMP JUMPDEST SWAP2 POP POP SWAP3 POP SWAP3 POP SWAP3 JUMP JUMPDEST PUSH0 PUSH8 0xFFFFFFFFFFFFFFFF DUP3 GT ISZERO PUSH2 0x2757 JUMPI PUSH2 0x2756 PUSH2 0x2501 JUMP JUMPDEST JUMPDEST PUSH1 0x20 DUP3 MUL SWAP1 POP PUSH1 0x20 DUP2 ADD SWAP1 POP SWAP2 SWAP1 POP JUMP JUMPDEST PUSH2 0x2771 DUP2 PUSH2 0x231C JUMP JUMPDEST DUP2 EQ PUSH2 0x277B JUMPI PUSH0 DUP1 REVERT JUMPDEST POP JUMP JUMPDEST PUSH0 DUP2 CALLDATALOAD SWAP1 POP PUSH2 0x278C DUP2 PUSH2 0x2768 JUMP JUMPDEST SWAP3 SWAP2 POP POP JUMP JUMPDEST PUSH0 PUSH2 0x27A4 PUSH2 0x279F DUP5 PUSH2 0x273D JUMP JUMPDEST PUSH2 0x255F JUMP JUMPDEST SWAP1 POP DUP1 DUP4 DUP3 MSTORE PUSH1 0x20 DUP3 ADD SWAP1 POP PUSH1 0x20 DUP5 MUL DUP4 ADD DUP6 DUP2 GT ISZERO PUSH2 0x27C7 JUMPI PUSH2 0x27C6 PUSH2 0x25A4 JUMP JUMPDEST JUMPDEST DUP4 JUMPDEST DUP2 DUP2 LT ISZERO PUSH2 0x27F0 JUMPI DUP1 PUSH2 0x27DC DUP9 DUP3 PUSH2 0x277E JUMP JUMPDEST DUP5 MSTORE PUSH1 0x20 DUP5 ADD SWAP4 POP POP PUSH1 0x20 DUP2 ADD SWAP1 POP PUSH2 0x27C9 JUMP JUMPDEST POP POP POP SWAP4 SWAP3 POP POP POP JUMP JUMPDEST PUSH0 DUP3 PUSH1 0x1F DUP4 ADD SLT PUSH2 0x280E JUMPI PUSH2 0x280D PUSH2 0x24FD JUMP JUMPDEST JUMPDEST DUP2 CALLDATALOAD PUSH2 0x281E DUP5 DUP3 PUSH1 0x20 DUP7 ADD PUSH2 0x2792 JUMP JUMPDEST SWAP2 POP POP SWAP3 SWAP2 POP POP JUMP JUMPDEST PUSH0 DUP1 PUSH1 0x40 DUP4 DUP6 SUB SLT ISZERO PUSH2 0x283D JUMPI PUSH2 0x283C PUSH2 0x2294 JUMP JUMPDEST JUMPDEST PUSH0 DUP4 ADD CALLDATALOAD PUSH8 0xFFFFFFFFFFFFFFFF DUP2 GT ISZERO PUSH2 0x285A JUMPI PUSH2 0x2859 PUSH2 0x2298 JUMP JUMPDEST JUMPDEST PUSH2 0x2866 DUP6 DUP3 DUP7 ADD PUSH2 0x2610 JUMP JUMPDEST SWAP3 POP POP PUSH1 0x20 DUP4 ADD CALLDATALOAD PUSH8 0xFFFFFFFFFFFFFFFF DUP2 GT ISZERO PUSH2 0x2887 JUMPI PUSH2 0x2886 PUSH2 0x2298 JUMP JUMPDEST JUMPDEST PUSH2 0x2893 DUP6 DUP3 DUP7 ADD PUSH2 0x27FA JUMP JUMPDEST SWAP2 POP POP SWAP3 POP SWAP3 SWAP1 POP JUMP JUMPDEST PUSH0 PUSH1 0x20 DUP3 DUP5 SUB SLT ISZERO PUSH2 0x28B2 JUMPI PUSH2 0x28B1 PUSH2 0x2294 JUMP JUMPDEST JUMPDEST PUSH0 PUSH2 0x28BF DUP5 DUP3 DUP6 ADD PUSH2 0x24AB JUMP JUMPDEST SWAP2 POP POP SWAP3 SWAP2 POP POP JUMP JUMPDEST PUSH0 DUP1 PUSH1 0x40 DUP4 DUP6 SUB SLT ISZERO PUSH2 0x28DE JUMPI PUSH2 0x28DD PUSH2 0x2294 JUMP JUMPDEST JUMPDEST PUSH0 PUSH2 0x28EB DUP6 DUP3 DUP7 ADD PUSH2 0x24AB JUMP JUMPDEST SWAP3 POP POP PUSH1 0x20 PUSH2 0x28FC DUP6 DUP3 DUP7 ADD PUSH2 0x277E JUMP JUMPDEST SWAP2 POP POP SWAP3 POP SWAP3 SWAP1 POP JUMP JUMPDEST PUSH0 DUP1 REVERT JUMPDEST PUSH0 PUSH8 0xFFFFFFFFFFFFFFFF DUP3 GT ISZERO PUSH2 0x2924 JUMPI PUSH2 0x2923 PUSH2 0x2501 JUMP JUMPDEST JUMPDEST PUSH2 0x292D DUP3 PUSH2 0x2377 JUMP JUMPDEST SWAP1 POP PUSH1 0x20 DUP2 ADD SWAP1 POP SWAP2 SWAP1 POP JUMP JUMPDEST DUP3 DUP2 DUP4 CALLDATACOPY PUSH0 DUP4 DUP4 ADD MSTORE POP POP POP JUMP JUMPDEST PUSH0 PUSH2 0x295A PUSH2 0x2955 DUP5 PUSH2 0x290A JUMP JUMPDEST PUSH2 0x255F JUMP JUMPDEST SWAP1 POP DUP3 DUP2 MSTORE PUSH1 0x20 DUP2 ADD DUP5 DUP5 DUP5 ADD GT ISZERO PUSH2 0x2976 JUMPI PUSH2 0x2975 PUSH2 0x2906 JUMP JUMPDEST JUMPDEST PUSH2 0x2981 DUP5 DUP3 DUP6 PUSH2 0x293A JUMP JUMPDEST POP SWAP4 SWAP3 POP POP POP JUMP JUMPDEST PUSH0 DUP3 PUSH1 0x1F DUP4 ADD SLT PUSH2 0x299D JUMPI PUSH2 0x299C PUSH2 0x24FD JUMP JUMPDEST JUMPDEST DUP2 CALLDATALOAD PUSH2 0x29AD DUP5 DUP3 PUSH1 0x20 DUP7 ADD PUSH2 0x2948 JUMP JUMPDEST SWAP2 POP POP SWAP3 SWAP2 POP POP JUMP JUMPDEST PUSH0 DUP1 PUSH0 DUP1 PUSH1 0x80 DUP6 DUP8 SUB SLT ISZERO PUSH2 0x29CE JUMPI PUSH2 0x29CD PUSH2 0x2294 JUMP JUMPDEST JUMPDEST PUSH0 PUSH2 0x29DB DUP8 DUP3 DUP9 ADD PUSH2 0x24AB JUMP JUMPDEST SWAP5 POP POP PUSH1 0x20 PUSH2 0x29EC DUP8 DUP3 DUP9 ADD PUSH2 0x24AB JUMP JUMPDEST SWAP4 POP POP PUSH1 0x40 PUSH2 0x29FD DUP8 DUP3 DUP9 ADD PUSH2 0x23FE JUMP JUMPDEST SWAP3 POP POP PUSH1 0x60 DUP6 ADD CALLDATALOAD PUSH8 0xFFFFFFFFFFFFFFFF DUP2 GT ISZERO PUSH2 0x2A1E JUMPI PUSH2 0x2A1D PUSH2 0x2298 JUMP JUMPDEST JUMPDEST PUSH2 0x2A2A DUP8 DUP3 DUP9 ADD PUSH2 0x2989 JUMP JUMPDEST SWAP2 POP POP SWAP3 SWAP6 SWAP2 SWAP5 POP SWAP3 POP JUMP JUMPDEST PUSH0 DUP1 PUSH1 0x40 DUP4 DUP6 SUB SLT ISZERO PUSH2 0x2A4C JUMPI PUSH2 0x2A4B PUSH2 0x2294 JUMP JUMPDEST JUMPDEST PUSH0 PUSH2 0x2A59 DUP6 DUP3 DUP7 ADD PUSH2 0x24AB JUMP JUMPDEST SWAP3 POP POP PUSH1 0x20 PUSH2 0x2A6A DUP6 DUP3 DUP7 ADD PUSH2 0x24AB JUMP JUMPDEST SWAP2 POP POP SWAP3 POP SWAP3 SWAP1 POP JUMP JUMPDEST PUSH32 0x4E487B7100000000000000000000000000000000000000000000000000000000 PUSH0 MSTORE PUSH1 0x22 PUSH1 0x4 MSTORE PUSH1 0x24 PUSH0 REVERT JUMPDEST PUSH0 PUSH1 0x2 DUP3 DIV SWAP1 POP PUSH1 0x1 DUP3 AND DUP1 PUSH2 0x2AB8 JUMPI PUSH1 0x7F DUP3 AND SWAP2 POP JUMPDEST PUSH1 0x20 DUP3 LT DUP2 SUB PUSH2 0x2ACB JUMPI PUSH2 0x2ACA PUSH2 0x2A74 JUMP JUMPDEST JUMPDEST POP SWAP2 SWAP1 POP JUMP JUMPDEST PUSH32 0x546F6B656E2049447320616E6420506F77657273206D757374206D6174636820 PUSH0 DUP3 ADD MSTORE PUSH32 0x696E206C656E6774680000000000000000000000000000000000000000000000 PUSH1 0x20 DUP3 ADD MSTORE POP JUMP JUMPDEST PUSH0 PUSH2 0x2B2B PUSH1 0x29 DUP4 PUSH2 0x2359 JUMP JUMPDEST SWAP2 POP PUSH2 0x2B36 DUP3 PUSH2 0x2AD1 JUMP JUMPDEST PUSH1 0x40 DUP3 ADD SWAP1 POP SWAP2 SWAP1 POP JUMP JUMPDEST PUSH0 PUSH1 0x20 DUP3 ADD SWAP1 POP DUP2 DUP2 SUB PUSH0 DUP4 ADD MSTORE PUSH2 0x2B58 DUP2 PUSH2 0x2B1F JUMP JUMPDEST SWAP1 POP SWAP2 SWAP1 POP JUMP JUMPDEST PUSH32 0x4E487B7100000000000000000000000000000000000000000000000000000000 PUSH0 MSTORE PUSH1 0x32 PUSH1 0x4 MSTORE PUSH1 0x24 PUSH0 REVERT JUMPDEST PUSH32 0x4E487B7100000000000000000000000000000000000000000000000000000000 PUSH0 MSTORE PUSH1 0x11 PUSH1 0x4 MSTORE PUSH1 0x24 PUSH0 REVERT JUMPDEST PUSH0 PUSH2 0x2BC3 DUP3 PUSH2 0x23DF JUMP JUMPDEST SWAP2 POP PUSH32 0xFFFFFFFFFFFFFFFFFFFFFFFFFFFFFFFFFFFFFFFFFFFFFFFFFFFFFFFFFFFFFFFF DUP3 SUB PUSH2 0x2BF5 JUMPI PUSH2 0x2BF4 PUSH2 0x2B8C JUMP JUMPDEST JUMPDEST PUSH1 0x1 DUP3 ADD SWAP1 POP SWAP2 SWAP1 POP JUMP JUMPDEST PUSH0 PUSH1 0x60 DUP3 ADD SWAP1 POP PUSH2 0x2C13 PUSH0 DUP4 ADD DUP7 PUSH2 0x246D JUMP JUMPDEST PUSH2 0x2C20 PUSH1 0x20 DUP4 ADD DUP6 PUSH2 0x26C5 JUMP JUMPDEST PUSH2 0x2C2D PUSH1 0x40 DUP4 ADD DUP5 PUSH2 0x246D JUMP JUMPDEST SWAP5 SWAP4 POP POP POP POP JUMP JUMPDEST PUSH32 0x546F6B656E2049447320616E6420766F746573206C656E677468206D75737420 PUSH0 DUP3 ADD MSTORE PUSH32 0x6D61746368000000000000000000000000000000000000000000000000000000 PUSH1 0x20 DUP3 ADD MSTORE POP JUMP JUMPDEST PUSH0 PUSH2 0x2C8F PUSH1 0x25 DUP4 PUSH2 0x2359 JUMP JUMPDEST SWAP2 POP PUSH2 0x2C9A DUP3 PUSH2 0x2C35 JUMP JUMPDEST PUSH1 0x40 DUP3 ADD SWAP1 POP SWAP2 SWAP1 POP JUMP JUMPDEST PUSH0 PUSH1 0x20 DUP3 ADD SWAP1 POP DUP2 DUP2 SUB PUSH0 DUP4 ADD MSTORE PUSH2 0x2CBC DUP2 PUSH2 0x2C83 JUMP JUMPDEST SWAP1 POP SWAP2 SWAP1 POP JUMP JUMPDEST PUSH32 0x596F7520617265206E6F7420746865206F776E6572206F66207468697320746F PUSH0 DUP3 ADD MSTORE PUSH32 0x6B656E0000000000000000000000000000000000000000000000000000000000 PUSH1 0x20 DUP3 ADD MSTORE POP JUMP JUMPDEST PUSH0 PUSH2 0x2D1D PUSH1 0x23 DUP4 PUSH2 0x2359 JUMP JUMPDEST SWAP2 POP PUSH2 0x2D28 DUP3 PUSH2 0x2CC3 JUMP JUMPDEST PUSH1 0x40 DUP3 ADD SWAP1 POP SWAP2 SWAP1 POP JUMP JUMPDEST PUSH0 PUSH1 0x20 DUP3 ADD SWAP1 POP DUP2 DUP2 SUB PUSH0 DUP4 ADD MSTORE PUSH2 0x2D4A DUP2 PUSH2 0x2D11 JUMP JUMPDEST SWAP1 POP SWAP2 SWAP1 POP JUMP JUMPDEST PUSH32 0x546F6B656E20686173206E6F20766F74696E6720706F77657200000000000000 PUSH0 DUP3 ADD MSTORE POP JUMP JUMPDEST PUSH0 PUSH2 0x2D85 PUSH1 0x19 DUP4 PUSH2 0x2359 JUMP JUMPDEST SWAP2 POP PUSH2 0x2D90 DUP3 PUSH2 0x2D51 JUMP JUMPDEST PUSH1 0x20 DUP3 ADD SWAP1 POP SWAP2 SWAP1 POP JUMP JUMPDEST PUSH0 PUSH1 0x20 DUP3 ADD SWAP1 POP DUP2 DUP2 SUB PUSH0 DUP4 ADD MSTORE PUSH2 0x2DB2 DUP2 PUSH2 0x2D79 JUMP JUMPDEST SWAP1 POP SWAP2 SWAP1 POP JUMP JUMPDEST PUSH0 PUSH2 0x2DC3 DUP3 PUSH2 0x23DF JUMP JUMPDEST SWAP2 POP PUSH2 0x2DCE DUP4 PUSH2 0x23DF JUMP JUMPDEST SWAP3 POP DUP3 DUP3 ADD SWAP1 POP DUP1 DUP3 GT ISZERO PUSH2 0x2DE6 JUMPI PUSH2 0x2DE5 PUSH2 0x2B8C JUMP JUMPDEST JUMPDEST SWAP3 SWAP2 POP POP JUMP JUMPDEST PUSH0 PUSH1 0x80 DUP3 ADD SWAP1 POP PUSH2 0x2DFF PUSH0 DUP4 ADD DUP8 PUSH2 0x246D JUMP JUMPDEST PUSH2 0x2E0C PUSH1 0x20 DUP4 ADD DUP7 PUSH2 0x26C5 JUMP JUMPDEST PUSH2 0x2E19 PUSH1 0x40 DUP4 ADD DUP6 PUSH2 0x2327 JUMP JUMPDEST PUSH2 0x2E26 PUSH1 0x60 DUP4 ADD DUP5 PUSH2 0x26C5 JUMP JUMPDEST SWAP6 SWAP5 POP POP POP POP POP JUMP JUMPDEST PUSH0 PUSH1 0x40 DUP3 ADD SWAP1 POP PUSH2 0x2E42 PUSH0 DUP4 ADD DUP6 PUSH2 0x246D JUMP JUMPDEST PUSH2 0x2E4F PUSH1 0x20 DUP4 ADD DUP5 PUSH2 0x26C5 JUMP JUMPDEST SWAP4 SWAP3 POP POP POP JUMP JUMPDEST PUSH0 DUP2 SWAP1 POP SWAP3 SWAP2 POP POP JUMP JUMPDEST PUSH0 PUSH2 0x2E6A DUP3 PUSH2 0x234F JUMP JUMPDEST PUSH2 0x2E74 DUP2 DUP6 PUSH2 0x2E56 JUMP JUMPDEST SWAP4 POP PUSH2 0x2E84 DUP2 DUP6 PUSH1 0x20 DUP7 ADD PUSH2 0x2369 JUMP JUMPDEST DUP1 DUP5 ADD SWAP2 POP POP SWAP3 SWAP2 POP POP JUMP JUMPDEST PUSH0 PUSH2 0x2E9B DUP3 DUP6 PUSH2 0x2E60 JUMP JUMPDEST SWAP2 POP PUSH2 0x2EA7 DUP3 DUP5 PUSH2 0x2E60 JUMP JUMPDEST SWAP2 POP DUP2 SWAP1 POP SWAP4 SWAP3 POP POP POP JUMP JUMPDEST PUSH0 DUP2 MLOAD SWAP1 POP SWAP2 SWAP1 POP JUMP JUMPDEST PUSH0 DUP3 DUP3 MSTORE PUSH1 0x20 DUP3 ADD SWAP1 POP SWAP3 SWAP2 POP POP JUMP JUMPDEST PUSH0 PUSH2 0x2ED7 DUP3 PUSH2 0x2EB3 JUMP JUMPDEST PUSH2 0x2EE1 DUP2 DUP6 PUSH2 0x2EBD JUMP JUMPDEST SWAP4 POP PUSH2 0x2EF1 DUP2 DUP6 PUSH1 0x20 DUP7 ADD PUSH2 0x2369 JUMP JUMPDEST PUSH2 0x2EFA DUP2 PUSH2 0x2377 JUMP JUMPDEST DUP5 ADD SWAP2 POP POP SWAP3 SWAP2 POP POP JUMP JUMPDEST PUSH0 PUSH1 0x80 DUP3 ADD SWAP1 POP PUSH2 0x2F18 PUSH0 DUP4 ADD DUP8 PUSH2 0x246D JUMP JUMPDEST PUSH2 0x2F25 PUSH1 0x20 DUP4 ADD DUP7 PUSH2 0x246D JUMP JUMPDEST PUSH2 0x2F32 PUSH1 0x40 DUP4 ADD DUP6 PUSH2 0x26C5 JUMP JUMPDEST DUP2 DUP2 SUB PUSH1 0x60 DUP4 ADD MSTORE PUSH2 0x2F44 DUP2 DUP5 PUSH2 0x2ECD JUMP JUMPDEST SWAP1 POP SWAP6 SWAP5 POP POP POP POP POP JUMP JUMPDEST PUSH0 DUP2 MLOAD SWAP1 POP PUSH2 0x2F5D DUP2 PUSH2 0x22C7 JUMP JUMPDEST SWAP3 SWAP2 POP POP JUMP JUMPDEST PUSH0 PUSH1 0x20 DUP3 DUP5 SUB SLT ISZERO PUSH2 0x2F78 JUMPI PUSH2 0x2F77 PUSH2 0x2294 JUMP JUMPDEST JUMPDEST PUSH0 PUSH2 0x2F85 DUP5 DUP3 DUP6 ADD PUSH2 0x2F4F JUMP JUMPDEST SWAP2 POP POP SWAP3 SWAP2 POP POP JUMP JUMPDEST PUSH32 0x4E487B7100000000000000000000000000000000000000000000000000000000 PUSH0 MSTORE PUSH1 0x12 PUSH1 0x4 MSTORE PUSH1 0x24 PUSH0 REVERT JUMPDEST PUSH0 PUSH2 0x2FC5 DUP3 PUSH2 0x23DF JUMP JUMPDEST SWAP2 POP PUSH2 0x2FD0 DUP4 PUSH2 0x23DF JUMP JUMPDEST SWAP3 POP DUP3 DUP3 SUB SWAP1 POP DUP2 DUP2 GT ISZERO PUSH2 0x2FE8 JUMPI PUSH2 0x2FE7 PUSH2 0x2B8C JUMP JUMPDEST JUMPDEST SWAP3 SWAP2 POP POP JUMP JUMPDEST PUSH32 0x4E487B7100000000000000000000000000000000000000000000000000000000 PUSH0 MSTORE PUSH1 0x31 PUSH1 0x4 MSTORE PUSH1 0x24 PUSH0 REVERT INVALID LOG2 PUSH5 0x6970667358 0x22 SLT KECCAK256 EXP CALLER EXTCODEHASH DUP11 SWAP1 PUSH22 0x8EA71CF0570F8E059F39F29F1CA1212CF0D435EC53CA 0xAF 0x2C 0xE4 PUSH1 0x64 PUSH20 0x6F6C634300081A00330000000000000000000000 "
		},
		"gasEstimates": {
			"creation": {
				"codeDepositCost": "2473800",
				"executionCost": "infinite",
				"totalCost": "infinite"
			},
			"external": {
				"approve(address,uint256)": "infinite",
				"balanceOf(address)": "infinite",
				"getApproved(uint256)": "infinite",
				"getVoteResult()": "infinite",
				"isApprovedForAll(address,address)": "infinite",
				"mintNFTs(address,uint256[],uint256[])": "infinite",
				"name()": "infinite",
				"owner()": "2626",
				"ownerOf(uint256)": "infinite",
				"renounceOwnership()": "infinite",
				"safeTransferFrom(address,address,uint256)": "infinite",
				"safeTransferFrom(address,address,uint256,bytes)": "infinite",
				"setApprovalForAll(address,bool)": "infinite",
				"supportsInterface(bytes4)": "875",
				"symbol()": "infinite",
				"tokenByIndex(uint256)": "infinite",
				"tokenCounter()": "2469",
				"tokenOfOwnerByIndex(address,uint256)": "infinite",
				"tokenURI(uint256)": "infinite",
				"totalAgainst()": "2491",
				"totalFor()": "2515",
				"totalSupply()": "2574",
				"transferFrom(address,address,uint256)": "infinite",
				"transferOwnership(address)": "infinite",
				"vote(uint256[],bool[])": "infinite",
				"votingPower(uint256)": "infinite"
			}
		},
		"methodIdentifiers": {
			"approve(address,uint256)": "095ea7b3",
			"balanceOf(address)": "70a08231",
			"getApproved(uint256)": "081812fc",
			"getVoteResult()": "8742fc3b",
			"isApprovedForAll(address,address)": "e985e9c5",
			"mintNFTs(address,uint256[],uint256[])": "0cc4f330",
			"name()": "06fdde03",
			"owner()": "8da5cb5b",
			"ownerOf(uint256)": "6352211e",
			"renounceOwnership()": "715018a6",
			"safeTransferFrom(address,address,uint256)": "42842e0e",
			"safeTransferFrom(address,address,uint256,bytes)": "b88d4fde",
			"setApprovalForAll(address,bool)": "a22cb465",
			"supportsInterface(bytes4)": "01ffc9a7",
			"symbol()": "95d89b41",
			"tokenByIndex(uint256)": "4f6ccce7",
			"tokenCounter()": "d082e381",
			"tokenOfOwnerByIndex(address,uint256)": "2f745c59",
			"tokenURI(uint256)": "c87b56dd",
			"totalAgainst()": "de15e288",
			"totalFor()": "2afefa70",
			"totalSupply()": "18160ddd",
			"transferFrom(address,address,uint256)": "23b872dd",
			"transferOwnership(address)": "f2fde38b",
			"vote(uint256[],bool[])": "281350cf",
			"votingPower(uint256)": "72c4a927"
		}
	},
	"abi": [
		{
			"inputs": [],
			"stateMutability": "nonpayable",
			"type": "constructor"
		},
		{
			"inputs": [],
			"name": "ERC721EnumerableForbiddenBatchMint",
			"type": "error"
		},
		{
			"inputs": [
				{
					"internalType": "address",
					"name": "sender",
					"type": "address"
				},
				{
					"internalType": "uint256",
					"name": "tokenId",
					"type": "uint256"
				},
				{
					"internalType": "address",
					"name": "owner",
					"type": "address"
				}
			],
			"name": "ERC721IncorrectOwner",
			"type": "error"
		},
		{
			"inputs": [
				{
					"internalType": "address",
					"name": "operator",
					"type": "address"
				},
				{
					"internalType": "uint256",
					"name": "tokenId",
					"type": "uint256"
				}
			],
			"name": "ERC721InsufficientApproval",
			"type": "error"
		},
		{
			"inputs": [
				{
					"internalType": "address",
					"name": "approver",
					"type": "address"
				}
			],
			"name": "ERC721InvalidApprover",
			"type": "error"
		},
		{
			"inputs": [
				{
					"internalType": "address",
					"name": "operator",
					"type": "address"
				}
			],
			"name": "ERC721InvalidOperator",
			"type": "error"
		},
		{
			"inputs": [
				{
					"internalType": "address",
					"name": "owner",
					"type": "address"
				}
			],
			"name": "ERC721InvalidOwner",
			"type": "error"
		},
		{
			"inputs": [
				{
					"internalType": "address",
					"name": "receiver",
					"type": "address"
				}
			],
			"name": "ERC721InvalidReceiver",
			"type": "error"
		},
		{
			"inputs": [
				{
					"internalType": "address",
					"name": "sender",
					"type": "address"
				}
			],
			"name": "ERC721InvalidSender",
			"type": "error"
		},
		{
			"inputs": [
				{
					"internalType": "uint256",
					"name": "tokenId",
					"type": "uint256"
				}
			],
			"name": "ERC721NonexistentToken",
			"type": "error"
		},
		{
			"inputs": [
				{
					"internalType": "address",
					"name": "owner",
					"type": "address"
				},
				{
					"internalType": "uint256",
					"name": "index",
					"type": "uint256"
				}
			],
			"name": "ERC721OutOfBoundsIndex",
			"type": "error"
		},
		{
			"inputs": [
				{
					"internalType": "address",
					"name": "owner",
					"type": "address"
				}
			],
			"name": "OwnableInvalidOwner",
			"type": "error"
		},
		{
			"inputs": [
				{
					"internalType": "address",
					"name": "account",
					"type": "address"
				}
			],
			"name": "OwnableUnauthorizedAccount",
			"type": "error"
		},
		{
			"anonymous": false,
			"inputs": [
				{
					"indexed": true,
					"internalType": "address",
					"name": "owner",
					"type": "address"
				},
				{
					"indexed": true,
					"internalType": "address",
					"name": "approved",
					"type": "address"
				},
				{
					"indexed": true,
					"internalType": "uint256",
					"name": "tokenId",
					"type": "uint256"
				}
			],
			"name": "Approval",
			"type": "event"
		},
		{
			"anonymous": false,
			"inputs": [
				{
					"indexed": true,
					"internalType": "address",
					"name": "owner",
					"type": "address"
				},
				{
					"indexed": true,
					"internalType": "address",
					"name": "operator",
					"type": "address"
				},
				{
					"indexed": false,
					"internalType": "bool",
					"name": "approved",
					"type": "bool"
				}
			],
			"name": "ApprovalForAll",
			"type": "event"
		},
		{
			"anonymous": false,
			"inputs": [
				{
					"indexed": true,
					"internalType": "address",
					"name": "previousOwner",
					"type": "address"
				},
				{
					"indexed": true,
					"internalType": "address",
					"name": "newOwner",
					"type": "address"
				}
			],
			"name": "OwnershipTransferred",
			"type": "event"
		},
		{
			"anonymous": false,
			"inputs": [
				{
					"indexed": true,
					"internalType": "address",
					"name": "from",
					"type": "address"
				},
				{
					"indexed": true,
					"internalType": "address",
					"name": "to",
					"type": "address"
				},
				{
					"indexed": true,
					"internalType": "uint256",
					"name": "tokenId",
					"type": "uint256"
				}
			],
			"name": "Transfer",
			"type": "event"
		},
		{
			"anonymous": false,
			"inputs": [
				{
					"indexed": false,
					"internalType": "address",
					"name": "voter",
					"type": "address"
				},
				{
					"indexed": false,
					"internalType": "uint256",
					"name": "tokenId",
					"type": "uint256"
				},
				{
					"indexed": false,
					"internalType": "bool",
					"name": "vote",
					"type": "bool"
				},
				{
					"indexed": false,
					"internalType": "uint256",
					"name": "votingPower",
					"type": "uint256"
				}
			],
			"name": "Voted",
			"type": "event"
		},
		{
			"inputs": [
				{
					"internalType": "address",
					"name": "to",
					"type": "address"
				},
				{
					"internalType": "uint256",
					"name": "tokenId",
					"type": "uint256"
				}
			],
			"name": "approve",
			"outputs": [],
			"stateMutability": "nonpayable",
			"type": "function"
		},
		{
			"inputs": [
				{
					"internalType": "address",
					"name": "owner",
					"type": "address"
				}
			],
			"name": "balanceOf",
			"outputs": [
				{
					"internalType": "uint256",
					"name": "",
					"type": "uint256"
				}
			],
			"stateMutability": "view",
			"type": "function"
		},
		{
			"inputs": [
				{
					"internalType": "uint256",
					"name": "tokenId",
					"type": "uint256"
				}
			],
			"name": "getApproved",
			"outputs": [
				{
					"internalType": "address",
					"name": "",
					"type": "address"
				}
			],
			"stateMutability": "view",
			"type": "function"
		},
		{
			"inputs": [],
			"name": "getVoteResult",
			"outputs": [
				{
					"internalType": "string",
					"name": "",
					"type": "string"
				}
			],
			"stateMutability": "view",
			"type": "function"
		},
		{
			"inputs": [
				{
					"internalType": "address",
					"name": "owner",
					"type": "address"
				},
				{
					"internalType": "address",
					"name": "operator",
					"type": "address"
				}
			],
			"name": "isApprovedForAll",
			"outputs": [
				{
					"internalType": "bool",
					"name": "",
					"type": "bool"
				}
			],
			"stateMutability": "view",
			"type": "function"
		},
		{
			"inputs": [
				{
					"internalType": "address",
					"name": "recipient",
					"type": "address"
				},
				{
					"internalType": "uint256[]",
					"name": "tokenIds",
					"type": "uint256[]"
				},
				{
					"internalType": "uint256[]",
					"name": "powers",
					"type": "uint256[]"
				}
			],
			"name": "mintNFTs",
			"outputs": [],
			"stateMutability": "nonpayable",
			"type": "function"
		},
		{
			"inputs": [],
			"name": "name",
			"outputs": [
				{
					"internalType": "string",
					"name": "",
					"type": "string"
				}
			],
			"stateMutability": "view",
			"type": "function"
		},
		{
			"inputs": [],
			"name": "owner",
			"outputs": [
				{
					"internalType": "address",
					"name": "",
					"type": "address"
				}
			],
			"stateMutability": "view",
			"type": "function"
		},
		{
			"inputs": [
				{
					"internalType": "uint256",
					"name": "tokenId",
					"type": "uint256"
				}
			],
			"name": "ownerOf",
			"outputs": [
				{
					"internalType": "address",
					"name": "",
					"type": "address"
				}
			],
			"stateMutability": "view",
			"type": "function"
		},
		{
			"inputs": [],
			"name": "renounceOwnership",
			"outputs": [],
			"stateMutability": "nonpayable",
			"type": "function"
		},
		{
			"inputs": [
				{
					"internalType": "address",
					"name": "from",
					"type": "address"
				},
				{
					"internalType": "address",
					"name": "to",
					"type": "address"
				},
				{
					"internalType": "uint256",
					"name": "tokenId",
					"type": "uint256"
				}
			],
			"name": "safeTransferFrom",
			"outputs": [],
			"stateMutability": "nonpayable",
			"type": "function"
		},
		{
			"inputs": [
				{
					"internalType": "address",
					"name": "from",
					"type": "address"
				},
				{
					"internalType": "address",
					"name": "to",
					"type": "address"
				},
				{
					"internalType": "uint256",
					"name": "tokenId",
					"type": "uint256"
				},
				{
					"internalType": "bytes",
					"name": "data",
					"type": "bytes"
				}
			],
			"name": "safeTransferFrom",
			"outputs": [],
			"stateMutability": "nonpayable",
			"type": "function"
		},
		{
			"inputs": [
				{
					"internalType": "address",
					"name": "operator",
					"type": "address"
				},
				{
					"internalType": "bool",
					"name": "approved",
					"type": "bool"
				}
			],
			"name": "setApprovalForAll",
			"outputs": [],
			"stateMutability": "nonpayable",
			"type": "function"
		},
		{
			"inputs": [
				{
					"internalType": "bytes4",
					"name": "interfaceId",
					"type": "bytes4"
				}
			],
			"name": "supportsInterface",
			"outputs": [
				{
					"internalType": "bool",
					"name": "",
					"type": "bool"
				}
			],
			"stateMutability": "view",
			"type": "function"
		},
		{
			"inputs": [],
			"name": "symbol",
			"outputs": [
				{
					"internalType": "string",
					"name": "",
					"type": "string"
				}
			],
			"stateMutability": "view",
			"type": "function"
		},
		{
			"inputs": [
				{
					"internalType": "uint256",
					"name": "index",
					"type": "uint256"
				}
			],
			"name": "tokenByIndex",
			"outputs": [
				{
					"internalType": "uint256",
					"name": "",
					"type": "uint256"
				}
			],
			"stateMutability": "view",
			"type": "function"
		},
		{
			"inputs": [],
			"name": "tokenCounter",
			"outputs": [
				{
					"internalType": "uint256",
					"name": "",
					"type": "uint256"
				}
			],
			"stateMutability": "view",
			"type": "function"
		},
		{
			"inputs": [
				{
					"internalType": "address",
					"name": "owner",
					"type": "address"
				},
				{
					"internalType": "uint256",
					"name": "index",
					"type": "uint256"
				}
			],
			"name": "tokenOfOwnerByIndex",
			"outputs": [
				{
					"internalType": "uint256",
					"name": "",
					"type": "uint256"
				}
			],
			"stateMutability": "view",
			"type": "function"
		},
		{
			"inputs": [
				{
					"internalType": "uint256",
					"name": "tokenId",
					"type": "uint256"
				}
			],
			"name": "tokenURI",
			"outputs": [
				{
					"internalType": "string",
					"name": "",
					"type": "string"
				}
			],
			"stateMutability": "view",
			"type": "function"
		},
		{
			"inputs": [],
			"name": "totalAgainst",
			"outputs": [
				{
					"internalType": "uint256",
					"name": "",
					"type": "uint256"
				}
			],
			"stateMutability": "view",
			"type": "function"
		},
		{
			"inputs": [],
			"name": "totalFor",
			"outputs": [
				{
					"internalType": "uint256",
					"name": "",
					"type": "uint256"
				}
			],
			"stateMutability": "view",
			"type": "function"
		},
		{
			"inputs": [],
			"name": "totalSupply",
			"outputs": [
				{
					"internalType": "uint256",
					"name": "",
					"type": "uint256"
				}
			],
			"stateMutability": "view",
			"type": "function"
		},
		{
			"inputs": [
				{
					"internalType": "address",
					"name": "from",
					"type": "address"
				},
				{
					"internalType": "address",
					"name": "to",
					"type": "address"
				},
				{
					"internalType": "uint256",
					"name": "tokenId",
					"type": "uint256"
				}
			],
			"name": "transferFrom",
			"outputs": [],
			"stateMutability": "nonpayable",
			"type": "function"
		},
		{
			"inputs": [
				{
					"internalType": "address",
					"name": "newOwner",
					"type": "address"
				}
			],
			"name": "transferOwnership",
			"outputs": [],
			"stateMutability": "nonpayable",
			"type": "function"
		},
		{
			"inputs": [
				{
					"internalType": "uint256[]",
					"name": "tokenIds",
					"type": "uint256[]"
				},
				{
					"internalType": "bool[]",
					"name": "votes",
					"type": "bool[]"
				}
			],
			"name": "vote",
			"outputs": [],
			"stateMutability": "nonpayable",
			"type": "function"
		},
		{
			"inputs": [
				{
					"internalType": "uint256",
					"name": "",
					"type": "uint256"
				}
			],
			"name": "votingPower",
			"outputs": [
				{
					"internalType": "uint256",
					"name": "",
					"type": "uint256"
				}
			],
			"stateMutability": "view",
			"type": "function"
		}
	]
}